{
  "contractName": "Autorizations",
  "abi": [
    {
      "constant": true,
      "inputs": [],
      "name": "IsReadPerson",
      "outputs": [
        {
          "name": "",
          "type": "bool"
        }
      ],
      "payable": false,
      "stateMutability": "view",
      "type": "function"
    },
    {
      "constant": true,
      "inputs": [],
      "name": "IsWritePerson",
      "outputs": [
        {
          "name": "",
          "type": "bool"
        }
      ],
      "payable": false,
      "stateMutability": "view",
      "type": "function"
    },
    {
      "constant": true,
      "inputs": [],
      "name": "IsAdmin",
      "outputs": [
        {
          "name": "",
          "type": "bool"
        }
      ],
      "payable": false,
      "stateMutability": "view",
      "type": "function"
    },
    {
      "constant": true,
      "inputs": [],
      "name": "IsOwner",
      "outputs": [
        {
          "name": "",
          "type": "bool"
        }
      ],
      "payable": false,
      "stateMutability": "view",
      "type": "function"
    },
    {
      "constant": false,
      "inputs": [
        {
          "name": "_addr",
          "type": "address"
        }
      ],
      "name": "addAdministrator",
      "outputs": [],
      "payable": false,
      "stateMutability": "nonpayable",
      "type": "function"
    },
    {
      "constant": false,
      "inputs": [
        {
          "name": "_id",
          "type": "uint256"
        }
      ],
      "name": "modifyAdministrator",
      "outputs": [],
      "payable": false,
      "stateMutability": "nonpayable",
      "type": "function"
    },
    {
      "constant": true,
      "inputs": [],
      "name": "getAdministratorsIds",
      "outputs": [
        {
          "name": "",
          "type": "uint256[]"
        }
      ],
      "payable": false,
      "stateMutability": "view",
      "type": "function"
    },
    {
      "constant": true,
      "inputs": [
        {
          "name": "_ref_Admin",
          "type": "uint256"
        }
      ],
      "name": "GetAdministrator",
      "outputs": [
        {
          "name": "",
          "type": "uint256"
        },
        {
          "name": "",
          "type": "uint256"
        },
        {
          "name": "",
          "type": "address"
        }
      ],
      "payable": false,
      "stateMutability": "view",
      "type": "function"
    }
  ],
  "bytecode": "0x60806040526000600255600060045560006006556000600855336000806101000a81548173ffffffffffffffffffffffffffffffffffffffff021916908373ffffffffffffffffffffffffffffffffffffffff160217905550610ade806100676000396000f30060806040526004361061008e576000357c0100000000000000000000000000000000000000000000000000000000900463ffffffff168063111b21851461009357806364467f861461010e5780639bee93981461013b578063acad8667146101a7578063b8fcc762146101d6578063c999117614610205578063d6e9426e14610248578063e4183cb114610277575b600080fd5b34801561009f57600080fd5b506100be600480360381019080803590602001909291905050506102a6565b604051808481526020018381526020018273ffffffffffffffffffffffffffffffffffffffff1673ffffffffffffffffffffffffffffffffffffffff168152602001935050505060405180910390f35b34801561011a57600080fd5b506101396004803603810190808035906020019092919050505061031d565b005b34801561014757600080fd5b5061015061046d565b6040518080602001828103825283818151815260200191508051906020019060200280838360005b83811015610193578082015181840152602081019050610178565b505050509050019250505060405180910390f35b3480156101b357600080fd5b506101bc6104fd565b604051808215151515815260200191505060405180910390f35b3480156101e257600080fd5b506101eb610694565b604051808215151515815260200191505060405180910390f35b34801561021157600080fd5b50610246600480360381019080803573ffffffffffffffffffffffffffffffffffffffff1690602001909291905050506107e3565b005b34801561025457600080fd5b5061025d6108fb565b604051808215151515815260200191505060405180910390f35b34801561028357600080fd5b5061028c610a4a565b604051808215151515815260200191505060405180910390f35b6000806000600560008581526020019081526020016000206000015460056000868152602001908152602001600020600101546005600087815260200190815260200160002060020160009054906101000a900473ffffffffffffffffffffffffffffffffffffffff169250925092509193909250565b60008060009054906101000a900473ffffffffffffffffffffffffffffffffffffffff1673ffffffffffffffffffffffffffffffffffffffff163373ffffffffffffffffffffffffffffffffffffffff1614151561037a57600080fd5b6005600083815260200190815260200160002060020160009054906101000a900473ffffffffffffffffffffffffffffffffffffffff169050606060405190810160405280838152602001606381526020018273ffffffffffffffffffffffffffffffffffffffff1681525060056000848152602001908152602001600020600082015181600001556020820151816001015560408201518160020160006101000a81548173ffffffffffffffffffffffffffffffffffffffff021916908373ffffffffffffffffffffffffffffffffffffffff1602179055509050506006600081548092919060010191905055505050565b60608060006006546040519080825280602002602001820160405280156104a35781602001602082028038833980820191505090505b509150600090505b6006548110156104f557600560008281526020019081526020016000206000015482828151811015156104da57fe5b906020019060200201818152505080806001019150506104ab565b819250505090565b6000806000809054906101000a900473ffffffffffffffffffffffffffffffffffffffff1673ffffffffffffffffffffffffffffffffffffffff163373ffffffffffffffffffffffffffffffffffffffff16141561055e5760019150610690565b600090505b60065481101561068b576005600082815260200190815260200160002060020160009054906101000a900473ffffffffffffffffffffffffffffffffffffffff16604051808273ffffffffffffffffffffffffffffffffffffffff1673ffffffffffffffffffffffffffffffffffffffff166c0100000000000000000000000002815260140191505060405180910390206000191633604051808273ffffffffffffffffffffffffffffffffffffffff1673ffffffffffffffffffffffffffffffffffffffff166c01000000000000000000000000028152601401915050604051809103902060001916148015610670575060096005600083815260200190815260200160002060010154145b1561067e5760019150610690565b8080600101915050610563565b600091505b5090565b60008061069f6108fb565b156106ad57600191506107df565b600090505b6006548110156107da576005600082815260200190815260200160002060020160009054906101000a900473ffffffffffffffffffffffffffffffffffffffff16604051808273ffffffffffffffffffffffffffffffffffffffff1673ffffffffffffffffffffffffffffffffffffffff166c0100000000000000000000000002815260140191505060405180910390206000191633604051808273ffffffffffffffffffffffffffffffffffffffff1673ffffffffffffffffffffffffffffffffffffffff166c010000000000000000000000000281526014019150506040518091039020600019161480156107bf575060016005600083815260200190815260200160002060010154145b156107cd57600191506107df565b80806001019150506106b2565b600091505b5090565b6000809054906101000a900473ffffffffffffffffffffffffffffffffffffffff1673ffffffffffffffffffffffffffffffffffffffff163373ffffffffffffffffffffffffffffffffffffffff1614151561083e57600080fd5b6060604051908101604052806006548152602001600981526020018273ffffffffffffffffffffffffffffffffffffffff16815250600560006006548152602001908152602001600020600082015181600001556020820151816001015560408201518160020160006101000a81548173ffffffffffffffffffffffffffffffffffffffff021916908373ffffffffffffffffffffffffffffffffffffffff16021790555090505060066000815480929190600101919050555050565b6000806109066104fd565b156109145760019150610a46565b600090505b600654811015610a41576005600082815260200190815260200160002060020160009054906101000a900473ffffffffffffffffffffffffffffffffffffffff16604051808273ffffffffffffffffffffffffffffffffffffffff1673ffffffffffffffffffffffffffffffffffffffff166c0100000000000000000000000002815260140191505060405180910390206000191633604051808273ffffffffffffffffffffffffffffffffffffffff1673ffffffffffffffffffffffffffffffffffffffff166c01000000000000000000000000028152601401915050604051809103902060001916148015610a26575060026005600083815260200190815260200160002060010154145b15610a345760019150610a46565b8080600101915050610919565b600091505b5090565b60008060009054906101000a900473ffffffffffffffffffffffffffffffffffffffff1673ffffffffffffffffffffffffffffffffffffffff163373ffffffffffffffffffffffffffffffffffffffff161415610aaa5760019050610aaf565b600090505b905600a165627a7a7230582079edc6ad333b85bbcf4b3ab87b88f551e9889c6babbfb2e1f2ae6cb584a0316b0029",
  "source": "pragma solidity ^0.4.24;\r\n\r\n\r\nimport \"./Ownable.sol\";\r\nimport \"./Structures.sol\";\r\n\r\ncontract Autorizations is Ownable, Structures {\r\n\r\n\r\n\r\n\r\n  // Check if read right -------------------------------------------------------\r\n  function IsReadPerson() public view returns (bool) {\r\n\r\n    if(IsWritePerson()){return true;}\r\n\r\n\r\n    // iterate over Sys storage and return 1 if read andress listed\r\n    for(uint i = 0; i < SystemAutorizationCounter;  i++) {\r\n      if(keccak256(msg.sender) == keccak256(Sys_autorizations[i].autorizedAddress) &&\r\n          Sys_autorizations[i].ref_AutorizationType == 1 ){\r\n        return true;\r\n      }\r\n    }\r\n    return false;\r\n  }\r\n\r\n  // Check if write right -------------------------------------------------------\r\n  function IsWritePerson() public view returns (bool) {\r\n\r\n    if(IsAdmin()){return true;}\r\n\r\n\r\n    // iterate over Sys storage and return 1 if read andress listed\r\n    for(uint i = 0; i < SystemAutorizationCounter;  i++) {\r\n      if(keccak256(msg.sender) == keccak256(Sys_autorizations[i].autorizedAddress) &&\r\n          Sys_autorizations[i].ref_AutorizationType == 2  ){\r\n        return true;\r\n      }\r\n    }\r\n    return false;\r\n  }\r\n\r\n  // Check if admin ------------------------------------------------------------\r\n  function IsAdmin() public view returns (bool) {\r\n\r\n    if(msg.sender == owner){return true;}\r\n\r\n\r\n    // iterate over Sys storage and return 1 if admin andress listed\r\n    for(uint i = 0; i < SystemAutorizationCounter;  i++) {\r\n      if(keccak256(msg.sender) == keccak256(Sys_autorizations[i].autorizedAddress) &&\r\n          Sys_autorizations[i].ref_AutorizationType == 9){\r\n        return true;\r\n      }\r\n    }\r\n    return false;\r\n  }\r\n\r\n  // Check if owner ------------------------------------------------------------\r\n  function IsOwner() public view returns (bool) {\r\n    if(msg.sender == owner){return true;}\r\n    return false;\r\n  }\r\n\r\n\r\n\r\n\r\n  function addAdministrator(address _addr) public onlyOwner {\r\n\r\n    // store the person\r\n    Sys_autorizations[SystemAutorizationCounter] = SystemAutorization(\r\n      SystemAutorizationCounter,  9, _addr);\r\n\r\n    // Add log\r\n    //LogAddAdministrator(PersonCounter, msg.sender, _name, _givenName);\r\n    SystemAutorizationCounter++;\r\n  }\r\n\r\n  function modifyAdministrator(uint _id) public onlyOwner {\r\n\r\n    address _addr = Sys_autorizations[_id].autorizedAddress;\r\n    // store the person\r\n    Sys_autorizations[_id] = SystemAutorization(\r\n      _id,  99, _addr);\r\n\r\n    // Add log\r\n    //LogAddAdministrator(PersonCounter, msg.sender, _name, _givenName);\r\n    SystemAutorizationCounter++;\r\n  }\r\n\r\n  function getAdministratorsIds() public view returns (uint[]) {\r\n\r\n    // prepare output array in memory\r\n    uint[] memory admiIds = new uint[](SystemAutorizationCounter);\r\n\r\n    // iterate over persons and return the personIds array\r\n    for(uint i = 0; i < SystemAutorizationCounter;  i++) {\r\n        admiIds[i] = Sys_autorizations[i].id;\r\n    }\r\n    return admiIds;\r\n  }\r\n\r\n  function GetAdministrator(uint _ref_Admin) public view returns (uint, uint, address) {\r\n\r\n    return (  Sys_autorizations[_ref_Admin].id,\r\n              Sys_autorizations[_ref_Admin].ref_AutorizationType,\r\n              Sys_autorizations[_ref_Admin].autorizedAddress);\r\n  }\r\n\r\n\r\n\r\n\r\n\r\n\r\n\r\n\r\n\r\n}\r\n",
  "sourcePath": "D:\\ChainSkills\\Training\\IDchain\\contracts\\Autorizations.sol",
  "compiler": {
    "name": "solc",
    "version": "0.4.24+commit.e67f0147.Emscripten.clang"
  },
  "schemaVersion": "2.0.1",
  "updatedAt": "2018-07-19T16:02:53.518Z"
}