{
  "contractName": "Autorizations",
  "abi": [
    {
      "constant": true,
      "inputs": [
        {
          "name": "_ref_Admin",
          "type": "uint256"
        }
      ],
      "name": "GetAdministrator",
      "outputs": [
        {
          "name": "",
          "type": "uint256"
        },
        {
          "name": "",
          "type": "uint256"
        },
        {
          "name": "",
          "type": "address"
        }
      ],
      "payable": false,
      "stateMutability": "view",
      "type": "function"
    },
    {
      "constant": false,
      "inputs": [
        {
          "name": "_id",
          "type": "uint256"
        }
      ],
      "name": "modifyAdministrator",
      "outputs": [],
      "payable": false,
      "stateMutability": "nonpayable",
      "type": "function"
    },
    {
      "constant": true,
      "inputs": [],
      "name": "getAdministratorsIds",
      "outputs": [
        {
          "name": "",
          "type": "uint256[]"
        }
      ],
      "payable": false,
      "stateMutability": "view",
      "type": "function"
    },
    {
      "constant": true,
      "inputs": [],
      "name": "IsAdmin",
      "outputs": [
        {
          "name": "",
          "type": "bool"
        }
      ],
      "payable": false,
      "stateMutability": "view",
      "type": "function"
    },
    {
      "constant": true,
      "inputs": [],
      "name": "IsReadPerson",
      "outputs": [
        {
          "name": "",
          "type": "bool"
        }
      ],
      "payable": false,
      "stateMutability": "view",
      "type": "function"
    },
    {
      "constant": false,
      "inputs": [
        {
          "name": "_addr",
          "type": "address"
        }
      ],
      "name": "addAdministrator",
      "outputs": [],
      "payable": false,
      "stateMutability": "nonpayable",
      "type": "function"
    },
    {
      "constant": true,
      "inputs": [],
      "name": "IsWritePerson",
      "outputs": [
        {
          "name": "",
          "type": "bool"
        }
      ],
      "payable": false,
      "stateMutability": "view",
      "type": "function"
    },
    {
      "constant": true,
      "inputs": [],
      "name": "IsOwner",
      "outputs": [
        {
          "name": "",
          "type": "bool"
        }
      ],
      "payable": false,
      "stateMutability": "view",
      "type": "function"
    }
  ],
  "bytecode": "0x60606040526000600255600060045560006006556000600855336000806101000a81548173ffffffffffffffffffffffffffffffffffffffff021916908373ffffffffffffffffffffffffffffffffffffffff160217905550610ac6806100676000396000f30060606040526004361061008e576000357c0100000000000000000000000000000000000000000000000000000000900463ffffffff168063111b21851461009357806364467f86146101045780639bee939814610127578063acad866714610191578063b8fcc762146101be578063c9991176146101eb578063d6e9426e14610224578063e4183cb114610251575b600080fd5b341561009e57600080fd5b6100b4600480803590602001909190505061027e565b604051808481526020018381526020018273ffffffffffffffffffffffffffffffffffffffff1673ffffffffffffffffffffffffffffffffffffffff168152602001935050505060405180910390f35b341561010f57600080fd5b61012560048080359060200190919050506102f5565b005b341561013257600080fd5b61013a610445565b6040518080602001828103825283818151815260200191508051906020019060200280838360005b8381101561017d578082015181840152602081019050610162565b505050509050019250505060405180910390f35b341561019c57600080fd5b6101a46104d1565b604051808215151515815260200191505060405180910390f35b34156101c957600080fd5b6101d1610668565b604051808215151515815260200191505060405180910390f35b34156101f657600080fd5b610222600480803573ffffffffffffffffffffffffffffffffffffffff169060200190919050506107b7565b005b341561022f57600080fd5b6102376108cf565b604051808215151515815260200191505060405180910390f35b341561025c57600080fd5b610264610a1e565b604051808215151515815260200191505060405180910390f35b6000806000600560008581526020019081526020016000206000015460056000868152602001908152602001600020600101546005600087815260200190815260200160002060020160009054906101000a900473ffffffffffffffffffffffffffffffffffffffff169250925092509193909250565b60008060009054906101000a900473ffffffffffffffffffffffffffffffffffffffff1673ffffffffffffffffffffffffffffffffffffffff163373ffffffffffffffffffffffffffffffffffffffff1614151561035257600080fd5b6005600083815260200190815260200160002060020160009054906101000a900473ffffffffffffffffffffffffffffffffffffffff169050606060405190810160405280838152602001606381526020018273ffffffffffffffffffffffffffffffffffffffff1681525060056000848152602001908152602001600020600082015181600001556020820151816001015560408201518160020160006101000a81548173ffffffffffffffffffffffffffffffffffffffff021916908373ffffffffffffffffffffffffffffffffffffffff1602179055509050506006600081548092919060010191905055505050565b61044d610a86565b610455610a86565b60006006546040518059106104675750595b90808252806020026020018201604052509150600090505b6006548110156104c957600560008281526020019081526020016000206000015482828151811015156104ae57fe5b9060200190602002018181525050808060010191505061047f565b819250505090565b6000806000809054906101000a900473ffffffffffffffffffffffffffffffffffffffff1673ffffffffffffffffffffffffffffffffffffffff163373ffffffffffffffffffffffffffffffffffffffff1614156105325760019150610664565b600090505b60065481101561065f576005600082815260200190815260200160002060020160009054906101000a900473ffffffffffffffffffffffffffffffffffffffff16604051808273ffffffffffffffffffffffffffffffffffffffff1673ffffffffffffffffffffffffffffffffffffffff166c0100000000000000000000000002815260140191505060405180910390206000191633604051808273ffffffffffffffffffffffffffffffffffffffff1673ffffffffffffffffffffffffffffffffffffffff166c01000000000000000000000000028152601401915050604051809103902060001916148015610644575060096005600083815260200190815260200160002060010154145b156106525760019150610664565b8080600101915050610537565b600091505b5090565b6000806106736108cf565b1561068157600191506107b3565b600090505b6006548110156107ae576005600082815260200190815260200160002060020160009054906101000a900473ffffffffffffffffffffffffffffffffffffffff16604051808273ffffffffffffffffffffffffffffffffffffffff1673ffffffffffffffffffffffffffffffffffffffff166c0100000000000000000000000002815260140191505060405180910390206000191633604051808273ffffffffffffffffffffffffffffffffffffffff1673ffffffffffffffffffffffffffffffffffffffff166c01000000000000000000000000028152601401915050604051809103902060001916148015610793575060016005600083815260200190815260200160002060010154145b156107a157600191506107b3565b8080600101915050610686565b600091505b5090565b6000809054906101000a900473ffffffffffffffffffffffffffffffffffffffff1673ffffffffffffffffffffffffffffffffffffffff163373ffffffffffffffffffffffffffffffffffffffff1614151561081257600080fd5b6060604051908101604052806006548152602001600981526020018273ffffffffffffffffffffffffffffffffffffffff16815250600560006006548152602001908152602001600020600082015181600001556020820151816001015560408201518160020160006101000a81548173ffffffffffffffffffffffffffffffffffffffff021916908373ffffffffffffffffffffffffffffffffffffffff16021790555090505060066000815480929190600101919050555050565b6000806108da6104d1565b156108e85760019150610a1a565b600090505b600654811015610a15576005600082815260200190815260200160002060020160009054906101000a900473ffffffffffffffffffffffffffffffffffffffff16604051808273ffffffffffffffffffffffffffffffffffffffff1673ffffffffffffffffffffffffffffffffffffffff166c0100000000000000000000000002815260140191505060405180910390206000191633604051808273ffffffffffffffffffffffffffffffffffffffff1673ffffffffffffffffffffffffffffffffffffffff166c010000000000000000000000000281526014019150506040518091039020600019161480156109fa575060026005600083815260200190815260200160002060010154145b15610a085760019150610a1a565b80806001019150506108ed565b600091505b5090565b60008060009054906101000a900473ffffffffffffffffffffffffffffffffffffffff1673ffffffffffffffffffffffffffffffffffffffff163373ffffffffffffffffffffffffffffffffffffffff161415610a7e5760019050610a83565b600090505b90565b6020604051908101604052806000815250905600a165627a7a723058209e3c09e44eaefcdf93f0621422477aee7789092783f0301483010034019634be0029",
  "source": "pragma solidity ^0.4.18;\r\n\r\n\r\nimport \"./Ownable.sol\";\r\nimport \"./Structures.sol\";\r\n\r\ncontract Autorizations is Ownable, Structures {\r\n\r\n\r\n\r\n\r\n  // Check if read right -------------------------------------------------------\r\n  function IsReadPerson() public view returns (bool) {\r\n\r\n    if(IsWritePerson()){return true;}\r\n\r\n\r\n    // iterate over Sys storage and return 1 if read andress listed\r\n    for(uint i = 0; i < SystemAutorizationCounter;  i++) {\r\n      if(keccak256(msg.sender) == keccak256(Sys_autorizations[i].autorizedAddress) &&\r\n          Sys_autorizations[i].ref_AutorizationType == 1 ){\r\n        return true;\r\n      }\r\n    }\r\n    return false;\r\n  }\r\n\r\n  // Check if write right -------------------------------------------------------\r\n  function IsWritePerson() public view returns (bool) {\r\n\r\n    if(IsAdmin()){return true;}\r\n\r\n\r\n    // iterate over Sys storage and return 1 if read andress listed\r\n    for(uint i = 0; i < SystemAutorizationCounter;  i++) {\r\n      if(keccak256(msg.sender) == keccak256(Sys_autorizations[i].autorizedAddress) &&\r\n          Sys_autorizations[i].ref_AutorizationType == 2  ){\r\n        return true;\r\n      }\r\n    }\r\n    return false;\r\n  }\r\n\r\n  // Check if admin ------------------------------------------------------------\r\n  function IsAdmin() public view returns (bool) {\r\n\r\n    if(msg.sender == owner){return true;}\r\n\r\n\r\n    // iterate over Sys storage and return 1 if admin andress listed\r\n    for(uint i = 0; i < SystemAutorizationCounter;  i++) {\r\n      if(keccak256(msg.sender) == keccak256(Sys_autorizations[i].autorizedAddress) &&\r\n          Sys_autorizations[i].ref_AutorizationType == 9){\r\n        return true;\r\n      }\r\n    }\r\n    return false;\r\n  }\r\n\r\n  // Check if owner ------------------------------------------------------------\r\n  function IsOwner() public view returns (bool) {\r\n    if(msg.sender == owner){return true;}\r\n    return false;\r\n  }\r\n\r\n\r\n\r\n\r\n  function addAdministrator(address _addr) public onlyOwner {\r\n\r\n    // store the person\r\n    Sys_autorizations[SystemAutorizationCounter] = SystemAutorization(\r\n      SystemAutorizationCounter,  9, _addr);\r\n\r\n    // Add log\r\n    //LogAddAdministrator(PersonCounter, msg.sender, _name, _givenName);\r\n    SystemAutorizationCounter++;\r\n  }\r\n\r\n  function modifyAdministrator(uint _id) public onlyOwner {\r\n\r\n    address _addr = Sys_autorizations[_id].autorizedAddress;\r\n    // store the person\r\n    Sys_autorizations[_id] = SystemAutorization(\r\n      _id,  99, _addr);\r\n\r\n    // Add log\r\n    //LogAddAdministrator(PersonCounter, msg.sender, _name, _givenName);\r\n    SystemAutorizationCounter++;\r\n  }\r\n\r\n  function getAdministratorsIds() public view returns (uint[]) {\r\n\r\n    // prepare output array in memory\r\n    uint[] memory admiIds = new uint[](SystemAutorizationCounter);\r\n\r\n    // iterate over persons and return the personIds array\r\n    for(uint i = 0; i < SystemAutorizationCounter;  i++) {\r\n        admiIds[i] = Sys_autorizations[i].id;\r\n    }\r\n    return admiIds;\r\n  }\r\n\r\n  function GetAdministrator(uint _ref_Admin) public view returns (uint, uint, address) {\r\n\r\n    return (  Sys_autorizations[_ref_Admin].id,\r\n              Sys_autorizations[_ref_Admin].ref_AutorizationType,\r\n              Sys_autorizations[_ref_Admin].autorizedAddress);\r\n  }\r\n\r\n\r\n\r\n\r\n\r\n\r\n\r\n\r\n\r\n}\r\n",
  "sourcePath": "D:\\ChainSkills\\Training\\IDchain\\contracts\\Autorizations.sol",
  "compiler": {
    "name": "solc",
    "version": "0.4.18+commit.9cf6e910.Emscripten.clang"
  },
  "schemaVersion": "1.0.1",
  "updatedAt": "2018-07-19T14:41:31.109Z"
}