{
  "contractName": "PersonList",
  "abi": [
    {
      "constant": false,
      "inputs": [
        {
          "name": "_ref_Person",
          "type": "uint256"
        },
        {
          "name": "_PhotoEncoding",
          "type": "string"
        },
        {
          "name": "_PhotoBlob",
          "type": "string"
        }
      ],
      "name": "addPhoto",
      "outputs": [],
      "payable": false,
      "stateMutability": "nonpayable",
      "type": "function"
    },
    {
      "constant": true,
      "inputs": [
        {
          "name": "_ref_Admin",
          "type": "uint256"
        }
      ],
      "name": "GetAdministrator",
      "outputs": [
        {
          "name": "",
          "type": "uint256"
        },
        {
          "name": "",
          "type": "uint256"
        },
        {
          "name": "",
          "type": "address"
        }
      ],
      "payable": false,
      "stateMutability": "view",
      "type": "function"
    },
    {
      "constant": false,
      "inputs": [
        {
          "name": "_ref_photo",
          "type": "uint256"
        },
        {
          "name": "_PhotoEncoding",
          "type": "string"
        },
        {
          "name": "_PhotoBlob",
          "type": "string"
        }
      ],
      "name": "modifyPhoto",
      "outputs": [],
      "payable": false,
      "stateMutability": "nonpayable",
      "type": "function"
    },
    {
      "constant": true,
      "inputs": [],
      "name": "getPhotoIds",
      "outputs": [
        {
          "name": "",
          "type": "uint256[]"
        }
      ],
      "payable": false,
      "stateMutability": "view",
      "type": "function"
    },
    {
      "constant": false,
      "inputs": [
        {
          "name": "_ref_Person",
          "type": "uint256"
        },
        {
          "name": "_ValDate",
          "type": "string"
        }
      ],
      "name": "FinalPersonValidation",
      "outputs": [],
      "payable": false,
      "stateMutability": "nonpayable",
      "type": "function"
    },
    {
      "constant": true,
      "inputs": [],
      "name": "getNumberOfPhoto",
      "outputs": [
        {
          "name": "",
          "type": "uint256"
        }
      ],
      "payable": false,
      "stateMutability": "view",
      "type": "function"
    },
    {
      "constant": false,
      "inputs": [],
      "name": "kill",
      "outputs": [],
      "payable": false,
      "stateMutability": "nonpayable",
      "type": "function"
    },
    {
      "constant": false,
      "inputs": [
        {
          "name": "_ref_photo",
          "type": "uint256"
        }
      ],
      "name": "ValidatePhoto",
      "outputs": [],
      "payable": false,
      "stateMutability": "nonpayable",
      "type": "function"
    },
    {
      "constant": true,
      "inputs": [],
      "name": "getMyPersonIds",
      "outputs": [
        {
          "name": "",
          "type": "uint256[]"
        }
      ],
      "payable": false,
      "stateMutability": "view",
      "type": "function"
    },
    {
      "constant": false,
      "inputs": [
        {
          "name": "_name",
          "type": "string"
        },
        {
          "name": "_givenName",
          "type": "string"
        },
        {
          "name": "_gender",
          "type": "string"
        },
        {
          "name": "_birthDate",
          "type": "string"
        }
      ],
      "name": "addPerson",
      "outputs": [],
      "payable": false,
      "stateMutability": "nonpayable",
      "type": "function"
    },
    {
      "constant": false,
      "inputs": [
        {
          "name": "_id",
          "type": "uint256"
        }
      ],
      "name": "modifyAdministrator",
      "outputs": [],
      "payable": false,
      "stateMutability": "nonpayable",
      "type": "function"
    },
    {
      "constant": true,
      "inputs": [
        {
          "name": "_ref_Person",
          "type": "uint256"
        }
      ],
      "name": "GetPhotoByPerson",
      "outputs": [
        {
          "name": "",
          "type": "uint256"
        },
        {
          "name": "",
          "type": "address"
        },
        {
          "name": "",
          "type": "uint256"
        },
        {
          "name": "",
          "type": "string"
        },
        {
          "name": "",
          "type": "string"
        },
        {
          "name": "",
          "type": "bool"
        }
      ],
      "payable": false,
      "stateMutability": "view",
      "type": "function"
    },
    {
      "constant": true,
      "inputs": [
        {
          "name": "_ref_Photo",
          "type": "uint256"
        }
      ],
      "name": "GetPhoto",
      "outputs": [
        {
          "name": "",
          "type": "uint256"
        },
        {
          "name": "",
          "type": "address"
        },
        {
          "name": "",
          "type": "uint256"
        },
        {
          "name": "",
          "type": "string"
        },
        {
          "name": "",
          "type": "string"
        },
        {
          "name": "",
          "type": "bool"
        }
      ],
      "payable": false,
      "stateMutability": "view",
      "type": "function"
    },
    {
      "constant": true,
      "inputs": [
        {
          "name": "_ref_Person",
          "type": "uint256"
        }
      ],
      "name": "getValidation",
      "outputs": [
        {
          "name": "",
          "type": "int256"
        }
      ],
      "payable": false,
      "stateMutability": "view",
      "type": "function"
    },
    {
      "constant": true,
      "inputs": [],
      "name": "GetContractOwner",
      "outputs": [
        {
          "name": "",
          "type": "address"
        }
      ],
      "payable": false,
      "stateMutability": "view",
      "type": "function"
    },
    {
      "constant": true,
      "inputs": [],
      "name": "getAdministratorsIds",
      "outputs": [
        {
          "name": "",
          "type": "uint256[]"
        }
      ],
      "payable": false,
      "stateMutability": "view",
      "type": "function"
    },
    {
      "constant": true,
      "inputs": [],
      "name": "getMyPhotoIds",
      "outputs": [
        {
          "name": "",
          "type": "uint256[]"
        }
      ],
      "payable": false,
      "stateMutability": "view",
      "type": "function"
    },
    {
      "constant": true,
      "inputs": [],
      "name": "IsAdmin",
      "outputs": [
        {
          "name": "",
          "type": "bool"
        }
      ],
      "payable": false,
      "stateMutability": "view",
      "type": "function"
    },
    {
      "constant": false,
      "inputs": [
        {
          "name": "_ref_Person",
          "type": "uint256"
        },
        {
          "name": "_ValDate",
          "type": "string"
        }
      ],
      "name": "PuchPersonToValidation",
      "outputs": [],
      "payable": false,
      "stateMutability": "nonpayable",
      "type": "function"
    },
    {
      "constant": true,
      "inputs": [],
      "name": "IsReadPerson",
      "outputs": [
        {
          "name": "",
          "type": "bool"
        }
      ],
      "payable": false,
      "stateMutability": "view",
      "type": "function"
    },
    {
      "constant": true,
      "inputs": [
        {
          "name": "_name",
          "type": "string"
        }
      ],
      "name": "SearchPersonIdsByName",
      "outputs": [
        {
          "name": "",
          "type": "uint256[]"
        }
      ],
      "payable": false,
      "stateMutability": "view",
      "type": "function"
    },
    {
      "constant": false,
      "inputs": [
        {
          "name": "_ref_Person",
          "type": "uint256"
        },
        {
          "name": "_name",
          "type": "string"
        },
        {
          "name": "_givenName",
          "type": "string"
        },
        {
          "name": "_gender",
          "type": "string"
        },
        {
          "name": "_birthDate",
          "type": "string"
        }
      ],
      "name": "modifyPerson",
      "outputs": [],
      "payable": false,
      "stateMutability": "nonpayable",
      "type": "function"
    },
    {
      "constant": false,
      "inputs": [
        {
          "name": "_addr",
          "type": "address"
        }
      ],
      "name": "addAdministrator",
      "outputs": [],
      "payable": false,
      "stateMutability": "nonpayable",
      "type": "function"
    },
    {
      "constant": true,
      "inputs": [],
      "name": "getNumberOfPersons",
      "outputs": [
        {
          "name": "",
          "type": "uint256"
        }
      ],
      "payable": false,
      "stateMutability": "view",
      "type": "function"
    },
    {
      "constant": true,
      "inputs": [],
      "name": "IsWritePerson",
      "outputs": [
        {
          "name": "",
          "type": "bool"
        }
      ],
      "payable": false,
      "stateMutability": "view",
      "type": "function"
    },
    {
      "constant": true,
      "inputs": [],
      "name": "IsOwner",
      "outputs": [
        {
          "name": "",
          "type": "bool"
        }
      ],
      "payable": false,
      "stateMutability": "view",
      "type": "function"
    },
    {
      "constant": true,
      "inputs": [
        {
          "name": "_ref_Person",
          "type": "uint256"
        }
      ],
      "name": "GetPerson",
      "outputs": [
        {
          "name": "",
          "type": "uint256"
        },
        {
          "name": "",
          "type": "address"
        },
        {
          "name": "",
          "type": "string"
        },
        {
          "name": "",
          "type": "string"
        },
        {
          "name": "",
          "type": "string"
        },
        {
          "name": "",
          "type": "string"
        },
        {
          "name": "",
          "type": "int256"
        }
      ],
      "payable": false,
      "stateMutability": "view",
      "type": "function"
    },
    {
      "constant": true,
      "inputs": [],
      "name": "getPersonIds",
      "outputs": [
        {
          "name": "",
          "type": "uint256[]"
        }
      ],
      "payable": false,
      "stateMutability": "view",
      "type": "function"
    },
    {
      "anonymous": false,
      "inputs": [
        {
          "indexed": true,
          "name": "_ref_Person",
          "type": "uint256"
        }
      ],
      "name": "LogAddPerson",
      "type": "event"
    },
    {
      "anonymous": false,
      "inputs": [
        {
          "indexed": true,
          "name": "_ref_Person",
          "type": "uint256"
        }
      ],
      "name": "LogAddInformation",
      "type": "event"
    },
    {
      "anonymous": false,
      "inputs": [
        {
          "indexed": true,
          "name": "_ref_Person",
          "type": "uint256"
        }
      ],
      "name": "LogModifyPerson",
      "type": "event"
    },
    {
      "anonymous": false,
      "inputs": [
        {
          "indexed": true,
          "name": "_ref_Person",
          "type": "uint256"
        },
        {
          "indexed": false,
          "name": "_status",
          "type": "uint256"
        }
      ],
      "name": "LogAddValidation",
      "type": "event"
    },
    {
      "anonymous": false,
      "inputs": [
        {
          "indexed": true,
          "name": "_ref_Person",
          "type": "uint256"
        }
      ],
      "name": "LogAddPhoto",
      "type": "event"
    },
    {
      "anonymous": false,
      "inputs": [
        {
          "indexed": true,
          "name": "_ref_Person",
          "type": "uint256"
        }
      ],
      "name": "LogModifyPhoto",
      "type": "event"
    },
    {
      "anonymous": false,
      "inputs": [
        {
          "indexed": true,
          "name": "_ref_Person",
          "type": "uint256"
        }
      ],
      "name": "LogValidePhoto",
      "type": "event"
    }
  ],
  "bytecode": "0x60606040526000600255600060045560006006556000600855336000806101000a81548173ffffffffffffffffffffffffffffffffffffffff021916908373ffffffffffffffffffffffffffffffffffffffff160217905550613fe5806100676000396000f30060606040526004361061016a576000357c0100000000000000000000000000000000000000000000000000000000900463ffffffff1680630421b1611461016f578063111b2185146102185780631bc8fb481461028957806328ee52c61461033257806332f08ac11461039c57806340a1aadd1461040257806341c0e1b51461042b5780635964d0c61461044057806359b5a2881461046357806360a8940e146104cd57806364467f86146105f357806368c203631461061657806376c096d21461076a5780638392ae5c146108be5780639b276a68146108f55780639bee93981461094a5780639e15e145146109b4578063acad866714610a1e578063b322d5c914610a4b578063b8fcc76214610ab1578063be551a3f14610ade578063c9673f9e14610b90578063c999117614610cbf578063caac5da714610cf8578063d6e9426e14610d21578063e4183cb114610d4e578063edbd1b9414610d7b578063f1b1337714610f9c575b600080fd5b341561017a57600080fd5b610216600480803590602001909190803590602001908201803590602001908080601f0160208091040260200160405190810160405280939291908181526020018383808284378201915050505050509190803590602001908201803590602001908080601f01602080910402602001604051908101604052809392919081815260200183838082843782019150505050505091905050611006565b005b341561022357600080fd5b6102396004808035906020019091905050611160565b604051808481526020018381526020018273ffffffffffffffffffffffffffffffffffffffff1673ffffffffffffffffffffffffffffffffffffffff168152602001935050505060405180910390f35b341561029457600080fd5b610330600480803590602001909190803590602001908201803590602001908080601f0160208091040260200160405190810160405280939291908181526020018383808284378201915050505050509190803590602001908201803590602001908080601f016020809104026020016040519081016040528093929190818152602001838380828437820191505050505050919050506111d7565b005b341561033d57600080fd5b610345611488565b6040518080602001828103825283818151815260200191508051906020019060200280838360005b8381101561038857808201518184015260208101905061036d565b505050509050019250505060405180910390f35b34156103a757600080fd5b610400600480803590602001909190803590602001908201803590602001908080601f01602080910402602001604051908101604052809392919081815260200183838082843782019150505050505091905050611527565b005b341561040d57600080fd5b610415611678565b6040518082815260200191505060405180910390f35b341561043657600080fd5b61043e611695565b005b341561044b57600080fd5b610461600480803590602001909190505061172a565b005b341561046e57600080fd5b610476611a30565b6040518080602001828103825283818151815260200191508051906020019060200280838360005b838110156104b957808201518184015260208101905061049e565b505050509050019250505060405180910390f35b34156104d857600080fd5b6105f1600480803590602001908201803590602001908080601f0160208091040260200160405190810160405280939291908181526020018383808284378201915050505050509190803590602001908201803590602001908080601f0160208091040260200160405190810160405280939291908181526020018383808284378201915050505050509190803590602001908201803590602001908080601f0160208091040260200160405190810160405280939291908181526020018383808284378201915050505050509190803590602001908201803590602001908080601f01602080910402602001604051908101604052809392919081815260200183838082843782019150505050505091905050611bb0565b005b34156105fe57600080fd5b6106146004808035906020019091905050611d1a565b005b341561062157600080fd5b6106376004808035906020019091905050611e6a565b604051808781526020018673ffffffffffffffffffffffffffffffffffffffff1673ffffffffffffffffffffffffffffffffffffffff168152602001858152602001806020018060200184151515158152602001838103835286818151815260200191508051906020019080838360005b838110156106c35780820151818401526020810190506106a8565b50505050905090810190601f1680156106f05780820380516001836020036101000a031916815260200191505b50838103825285818151815260200191508051906020019080838360005b8381101561072957808201518184015260208101905061070e565b50505050905090810190601f1680156107565780820380516001836020036101000a031916815260200191505b509850505050505050505060405180910390f35b341561077557600080fd5b61078b600480803590602001909190505061256c565b604051808781526020018673ffffffffffffffffffffffffffffffffffffffff1673ffffffffffffffffffffffffffffffffffffffff168152602001858152602001806020018060200184151515158152602001838103835286818151815260200191508051906020019080838360005b838110156108175780820151818401526020810190506107fc565b50505050905090810190601f1680156108445780820380516001836020036101000a031916815260200191505b50838103825285818151815260200191508051906020019080838360005b8381101561087d578082015181840152602081019050610862565b50505050905090810190601f1680156108aa5780820380516001836020036101000a031916815260200191505b509850505050505050505060405180910390f35b34156108c957600080fd5b6108df6004808035906020019091905050612a14565b6040518082815260200191505060405180910390f35b341561090057600080fd5b610908612a9a565b604051808273ffffffffffffffffffffffffffffffffffffffff1673ffffffffffffffffffffffffffffffffffffffff16815260200191505060405180910390f35b341561095557600080fd5b61095d612ac3565b6040518080602001828103825283818151815260200191508051906020019060200280838360005b838110156109a0578082015181840152602081019050610985565b505050509050019250505060405180910390f35b34156109bf57600080fd5b6109c7612b4f565b6040518080602001828103825283818151815260200191508051906020019060200280838360005b83811015610a0a5780820151818401526020810190506109ef565b505050509050019250505060405180910390f35b3415610a2957600080fd5b610a31612ccf565b604051808215151515815260200191505060405180910390f35b3415610a5657600080fd5b610aaf600480803590602001909190803590602001908201803590602001908080601f01602080910402602001604051908101604052809392919081815260200183838082843782019150505050505091905050612e66565b005b3415610abc57600080fd5b610ac46130be565b604051808215151515815260200191505060405180910390f35b3415610ae957600080fd5b610b39600480803590602001908201803590602001908080601f0160208091040260200160405190810160405280939291908181526020018383808284378201915050505050509190505061320d565b6040518080602001828103825283818151815260200191508051906020019060200280838360005b83811015610b7c578082015181840152602081019050610b61565b505050509050019250505060405180910390f35b3415610b9b57600080fd5b610cbd600480803590602001909190803590602001908201803590602001908080601f0160208091040260200160405190810160405280939291908181526020018383808284378201915050505050509190803590602001908201803590602001908080601f0160208091040260200160405190810160405280939291908181526020018383808284378201915050505050509190803590602001908201803590602001908080601f0160208091040260200160405190810160405280939291908181526020018383808284378201915050505050509190803590602001908201803590602001908080601f01602080910402602001604051908101604052809392919081815260200183838082843782019150505050505091905050613414565b005b3415610cca57600080fd5b610cf6600480803573ffffffffffffffffffffffffffffffffffffffff169060200190919050506136ee565b005b3415610d0357600080fd5b610d0b613806565b6040518082815260200191505060405180910390f35b3415610d2c57600080fd5b610d34613823565b604051808215151515815260200191505060405180910390f35b3415610d5957600080fd5b610d61613972565b604051808215151515815260200191505060405180910390f35b3415610d8657600080fd5b610d9c60048080359060200190919050506139da565b604051808881526020018773ffffffffffffffffffffffffffffffffffffffff1673ffffffffffffffffffffffffffffffffffffffff1681526020018060200180602001806020018060200186815260200185810385528a818151815260200191508051906020019080838360005b83811015610e26578082015181840152602081019050610e0b565b50505050905090810190601f168015610e535780820380516001836020036101000a031916815260200191505b50858103845289818151815260200191508051906020019080838360005b83811015610e8c578082015181840152602081019050610e71565b50505050905090810190601f168015610eb95780820380516001836020036101000a031916815260200191505b50858103835288818151815260200191508051906020019080838360005b83811015610ef2578082015181840152602081019050610ed7565b50505050905090810190601f168015610f1f5780820380516001836020036101000a031916815260200191505b50858103825287818151815260200191508051906020019080838360005b83811015610f58578082015181840152602081019050610f3d565b50505050905090810190601f168015610f855780820380516001836020036101000a031916815260200191505b509b50505050505050505050505060405180910390f35b3415610fa757600080fd5b610faf613e4d565b6040518080602001828103825283818151815260200191508051906020019060200280838360005b83811015610ff2578082015181840152602081019050610fd7565b505050509050019250505060405180910390f35b60c06040519081016040528060045481526020013373ffffffffffffffffffffffffffffffffffffffff168152602001848152602001838152602001828152602001600015158152506003600060045481526020019081526020016000206000820151816000015560208201518160010160006101000a81548173ffffffffffffffffffffffffffffffffffffffff021916908373ffffffffffffffffffffffffffffffffffffffff1602179055506040820151816002015560608201518160030190805190602001906110db929190613eec565b5060808201518160040190805190602001906110f8929190613eec565b5060a08201518160050160006101000a81548160ff021916908315150217905550905050827f8ef852332d1e8d4844d0758d7c1fe773bc54682b1ece04c9ca3bf24af8c6239c60405160405180910390a2600460008154809291906001019190505550505050565b6000806000600560008581526020019081526020016000206000015460056000868152602001908152602001600020600101546005600087815260200190815260200160002060020160009054906101000a900473ffffffffffffffffffffffffffffffffffffffff169250925092509193909250565b60006003600085815260200190815260200160002060020154905033604051808273ffffffffffffffffffffffffffffffffffffffff1673ffffffffffffffffffffffffffffffffffffffff166c010000000000000000000000000281526014019150506040518091039020600019166003600086815260200190815260200160002060010160009054906101000a900473ffffffffffffffffffffffffffffffffffffffff16604051808273ffffffffffffffffffffffffffffffffffffffff1673ffffffffffffffffffffffffffffffffffffffff166c0100000000000000000000000002815260140191505060405180910390206000191614801561130657507fffffffffffffffffffffffffffffffffffffffffffffffffffffffffffffffff61130482612a14565b145b806113295750600061131782612a14565b1480156113285750611327613823565b5b5b806113385750611337613972565b5b151561134357600080fd5b60c0604051908101604052808581526020013373ffffffffffffffffffffffffffffffffffffffff16815260200182815260200184815260200183815260200160001515815250600360008681526020019081526020016000206000820151816000015560208201518160010160006101000a81548173ffffffffffffffffffffffffffffffffffffffff021916908373ffffffffffffffffffffffffffffffffffffffff160217905550604082015181600201556060820151816003019080519060200190611414929190613eec565b506080820151816004019080519060200190611431929190613eec565b5060a08201518160050160006101000a81548160ff021916908315150217905550905050807fe2c4612958605bc48ffae69320cf3cc02efd214d5984431c4020b6815ac1798860405160405180910390a250505050565b611490613f6c565b611498613f6c565b60006114a26130be565b15156114ad57600080fd5b6004546040518059106114bd5750595b90808252806020026020018201604052509150600090505b60045481101561151f576003600082815260200190815260200160002060000154828281518110151561150457fe5b906020019060200201818152505080806001019150506114d5565b819250505090565b61152f612ccf565b80156115435750600061154183612a14565b145b151561154e57600080fd5b60a0604051908101604052806008548152602001838152602001600181526020013373ffffffffffffffffffffffffffffffffffffffff1681526020018281525060076000600854815260200190815260200160002060008201518160000155602082015181600101556040820151816002015560608201518160030160006101000a81548173ffffffffffffffffffffffffffffffffffffffff021916908373ffffffffffffffffffffffffffffffffffffffff1602179055506080820151816004019080519060200190611625929190613eec565b50905050817f1044b1b099b5303874f4bff2ed20f96da5dd5493d9d4aa96e5d0918aef0e75b060016040518082815260200191505060405180910390a26008600081548092919060010191905055505050565b60006116826130be565b151561168d57600080fd5b600454905090565b6000809054906101000a900473ffffffffffffffffffffffffffffffffffffffff1673ffffffffffffffffffffffffffffffffffffffff163373ffffffffffffffffffffffffffffffffffffffff161415156116f057600080fd5b6000809054906101000a900473ffffffffffffffffffffffffffffffffffffffff1673ffffffffffffffffffffffffffffffffffffffff16ff5b60006003600083815260200190815260200160002060020154905060c0604051908101604052808381526020016003600085815260200190815260200160002060010160009054906101000a900473ffffffffffffffffffffffffffffffffffffffff1673ffffffffffffffffffffffffffffffffffffffff16815260200160036000858152602001908152602001600020600201548152602001600360008581526020019081526020016000206003018054600181600116156101000203166002900480601f01602080910402602001604051908101604052809291908181526020018280546001816001161561010002031660029004801561186f5780601f106118445761010080835404028352916020019161186f565b820191906000526020600020905b81548152906001019060200180831161185257829003601f168201915b50505050508152602001600360008581526020019081526020016000206004018054600181600116156101000203166002900480601f0160208091040260200160405190810160405280929190818152602001828054600181600116156101000203166002900480156119235780601f106118f857610100808354040283529160200191611923565b820191906000526020600020905b81548152906001019060200180831161190657829003601f168201915b5050505050815260200160011515815250600360008481526020019081526020016000206000820151816000015560208201518160010160006101000a81548173ffffffffffffffffffffffffffffffffffffffff021916908373ffffffffffffffffffffffffffffffffffffffff1602179055506040820151816002015560608201518160030190805190602001906119be929190613eec565b5060808201518160040190805190602001906119db929190613eec565b5060a08201518160050160006101000a81548160ff021916908315150217905550905050807f0c190dd629962e1223e7623c3879e264dcc6f5d5bce9f4c2c1e5986397bea88860405160405180910390a25050565b611a38613f6c565b611a40613f6c565b600080611a4b613f6c565b6000600254604051805910611a5d5750595b9080825280602002602001820160405250945060009350600092505b600254831015611b36573373ffffffffffffffffffffffffffffffffffffffff166001600085815260200190815260200160002060010160009054906101000a900473ffffffffffffffffffffffffffffffffffffffff1673ffffffffffffffffffffffffffffffffffffffff161415611b295760016000848152602001908152602001600020600001548585815181101515611b1257fe5b906020019060200201818152505083806001019450505b8280600101935050611a79565b83604051805910611b445750595b90808252806020026020018201604052509150600090505b83811015611ba5578481815181101515611b7257fe5b906020019060200201518282815181101515611b8a57fe5b90602001906020020181815250508080600101915050611b5c565b819550505050505090565b60c06040519081016040528060025481526020013373ffffffffffffffffffffffffffffffffffffffff168152602001858152602001848152602001838152602001828152506001600060025481526020019081526020016000206000820151816000015560208201518160010160006101000a81548173ffffffffffffffffffffffffffffffffffffffff021916908373ffffffffffffffffffffffffffffffffffffffff1602179055506040820151816002019080519060200190611c78929190613eec565b506060820151816003019080519060200190611c95929190613eec565b506080820151816004019080519060200190611cb2929190613eec565b5060a0820151816005019080519060200190611ccf929190613eec565b509050506002547fa877cc0359af613466e5e931899542297dd8484a43d0b418a01585303178d80460405160405180910390a260026000815480929190600101919050555050505050565b60008060009054906101000a900473ffffffffffffffffffffffffffffffffffffffff1673ffffffffffffffffffffffffffffffffffffffff163373ffffffffffffffffffffffffffffffffffffffff16141515611d7757600080fd5b6005600083815260200190815260200160002060020160009054906101000a900473ffffffffffffffffffffffffffffffffffffffff169050606060405190810160405280838152602001606381526020018273ffffffffffffffffffffffffffffffffffffffff1681525060056000848152602001908152602001600020600082015181600001556020820151816001015560408201518160020160006101000a81548173ffffffffffffffffffffffffffffffffffffffff021916908373ffffffffffffffffffffffffffffffffffffffff1602179055509050506006600081548092919060010191905055505050565b6000806000611e77613f80565b611e7f613f80565b60008060006509184e729fff9150600090505b600454811015611ef757886003600060036000858152602001908152602001600020600001548152602001908152602001600020600201541415611eea57600360008281526020019081526020016000206000015491505b8080600101915050611e92565b6509184e729fff8214156120e9576509184e729fff6003600084815260200190815260200160002060010160009054906101000a900473ffffffffffffffffffffffffffffffffffffffff166509184e729fff60036000868152602001908152602001600020600301600360008781526020019081526020016000206004016003600088815260200190815260200160002060050160009054906101000a900460ff16859550839350828054600181600116156101000203166002900480601f0160208091040260200160405190810160405280929190818152602001828054600181600116156101000203166002900480156120355780601f1061200a57610100808354040283529160200191612035565b820191906000526020600020905b81548152906001019060200180831161201857829003601f168201915b50505050509250818054600181600116156101000203166002900480601f0160208091040260200160405190810160405280929190818152602001828054600181600116156101000203166002900480156120d15780601f106120a6576101008083540402835291602001916120d1565b820191906000526020600020905b8154815290600101906020018083116120b457829003601f168201915b50505050509150975097509750975097509750612561565b33604051808273ffffffffffffffffffffffffffffffffffffffff1673ffffffffffffffffffffffffffffffffffffffff166c010000000000000000000000000281526014019150506040518091039020600019166003600084815260200190815260200160002060010160009054906101000a900473ffffffffffffffffffffffffffffffffffffffff16604051808273ffffffffffffffffffffffffffffffffffffffff1673ffffffffffffffffffffffffffffffffffffffff166c0100000000000000000000000002815260140191505060405180910390206000191614806121f557506003600083815260200190815260200160002060050160009054906101000a900460ff165b806122045750612203613972565b5b156124075760036000838152602001908152602001600020600001546003600084815260200190815260200160002060010160009054906101000a900473ffffffffffffffffffffffffffffffffffffffff16600360008581526020019081526020016000206002015460036000868152602001908152602001600020600301600360008781526020019081526020016000206004016003600088815260200190815260200160002060050160009054906101000a900460ff16828054600181600116156101000203166002900480601f0160208091040260200160405190810160405280929190818152602001828054600181600116156101000203166002900480156123535780601f1061232857610100808354040283529160200191612353565b820191906000526020600020905b81548152906001019060200180831161233657829003601f168201915b50505050509250818054600181600116156101000203166002900480601f0160208091040260200160405190810160405280929190818152602001828054600181600116156101000203166002900480156123ef5780601f106123c4576101008083540402835291602001916123ef565b820191906000526020600020905b8154815290600101906020018083116123d257829003601f168201915b50505050509150975097509750975097509750612561565b60036000838152602001908152602001600020600001546003600084815260200190815260200160002060010160009054906101000a900473ffffffffffffffffffffffffffffffffffffffff166003600085815260200190815260200160002060020154600360008681526020019081526020016000206003016003600087815260200190815260200160002060050160009054906101000a900460ff16818054600181600116156101000203166002900480601f01602080910402602001604051908101604052809291908181526020018280546001816001161561010002031660029004801561253b5780601f106125105761010080835404028352916020019161253b565b820191906000526020600020905b81548152906001019060200180831161251e57829003601f168201915b505050505091506020604051908101604052806000815250909750975097509750975097505b505091939550919395565b6000806000612579613f80565b612581613f80565b600033604051808273ffffffffffffffffffffffffffffffffffffffff1673ffffffffffffffffffffffffffffffffffffffff166c010000000000000000000000000281526014019150506040518091039020600019166003600089815260200190815260200160002060010160009054906101000a900473ffffffffffffffffffffffffffffffffffffffff16604051808273ffffffffffffffffffffffffffffffffffffffff1673ffffffffffffffffffffffffffffffffffffffff166c01000000000000000000000000028152601401915050604051809103902060001916148061269f57506126726130be565b801561269e57506003600088815260200190815260200160002060050160009054906101000a900460ff165b5b806126ae57506126ad613972565b5b156128b15760036000888152602001908152602001600020600001546003600089815260200190815260200160002060010160009054906101000a900473ffffffffffffffffffffffffffffffffffffffff16600360008a815260200190815260200160002060020154600360008b8152602001908152602001600020600301600360008c8152602001908152602001600020600401600360008d815260200190815260200160002060050160009054906101000a900460ff16828054600181600116156101000203166002900480601f0160208091040260200160405190810160405280929190818152602001828054600181600116156101000203166002900480156127fd5780601f106127d2576101008083540402835291602001916127fd565b820191906000526020600020905b8154815290600101906020018083116127e057829003601f168201915b50505050509250818054600181600116156101000203166002900480601f0160208091040260200160405190810160405280929190818152602001828054600181600116156101000203166002900480156128995780601f1061286e57610100808354040283529160200191612899565b820191906000526020600020905b81548152906001019060200180831161287c57829003601f168201915b50505050509150955095509550955095509550612a0b565b60036000888152602001908152602001600020600001546003600089815260200190815260200160002060010160009054906101000a900473ffffffffffffffffffffffffffffffffffffffff16600360008a815260200190815260200160002060020154600360008b8152602001908152602001600020600301600360008c815260200190815260200160002060050160009054906101000a900460ff16818054600181600116156101000203166002900480601f0160208091040260200160405190810160405280929190818152602001828054600181600116156101000203166002900480156129e55780601f106129ba576101008083540402835291602001916129e5565b820191906000526020600020905b8154815290600101906020018083116129c857829003601f168201915b505050505091506020604051908101604052806000815250909550955095509550955095505b91939550919395565b60008060007fffffffffffffffffffffffffffffffffffffffffffffffffffffffffffffffff9150600090505b600854811015612a90578360076000838152602001908152602001600020600101541415612a8357600760008281526020019081526020016000206002015491505b8080600101915050612a41565b8192505050919050565b60008060009054906101000a900473ffffffffffffffffffffffffffffffffffffffff16905090565b612acb613f6c565b612ad3613f6c565b6000600654604051805910612ae55750595b90808252806020026020018201604052509150600090505b600654811015612b475760056000828152602001908152602001600020600001548282815181101515612b2c57fe5b90602001906020020181815250508080600101915050612afd565b819250505090565b612b57613f6c565b612b5f613f6c565b600080612b6a613f6c565b6000600454604051805910612b7c5750595b9080825280602002602001820160405250945060009350600092505b600454831015612c55573373ffffffffffffffffffffffffffffffffffffffff166003600085815260200190815260200160002060010160009054906101000a900473ffffffffffffffffffffffffffffffffffffffff1673ffffffffffffffffffffffffffffffffffffffff161415612c485760036000848152602001908152602001600020600001548585815181101515612c3157fe5b906020019060200201818152505083806001019450505b8280600101935050612b98565b83604051805910612c635750595b90808252806020026020018201604052509150600090505b83811015612cc4578481815181101515612c9157fe5b906020019060200201518282815181101515612ca957fe5b90602001906020020181815250508080600101915050612c7b565b819550505050505090565b6000806000809054906101000a900473ffffffffffffffffffffffffffffffffffffffff1673ffffffffffffffffffffffffffffffffffffffff163373ffffffffffffffffffffffffffffffffffffffff161415612d305760019150612e62565b600090505b600654811015612e5d576005600082815260200190815260200160002060020160009054906101000a900473ffffffffffffffffffffffffffffffffffffffff16604051808273ffffffffffffffffffffffffffffffffffffffff1673ffffffffffffffffffffffffffffffffffffffff166c0100000000000000000000000002815260140191505060405180910390206000191633604051808273ffffffffffffffffffffffffffffffffffffffff1673ffffffffffffffffffffffffffffffffffffffff166c01000000000000000000000000028152601401915050604051809103902060001916148015612e42575060096005600083815260200190815260200160002060010154145b15612e505760019150612e62565b8080600101915050612d35565b600091505b5090565b33604051808273ffffffffffffffffffffffffffffffffffffffff1673ffffffffffffffffffffffffffffffffffffffff166c010000000000000000000000000281526014019150506040518091039020600019166001600084815260200190815260200160002060010160009054906101000a900473ffffffffffffffffffffffffffffffffffffffff16604051808273ffffffffffffffffffffffffffffffffffffffff1673ffffffffffffffffffffffffffffffffffffffff166c01000000000000000000000000028152601401915050604051809103902060001916148015612f7a57507fffffffffffffffffffffffffffffffffffffffffffffffffffffffffffffffff612f7883612a14565b145b80612f895750612f88613823565b5b1515612f9457600080fd5b60a0604051908101604052806008548152602001838152602001600081526020013373ffffffffffffffffffffffffffffffffffffffff1681526020018281525060076000600854815260200190815260200160002060008201518160000155602082015181600101556040820151816002015560608201518160030160006101000a81548173ffffffffffffffffffffffffffffffffffffffff021916908373ffffffffffffffffffffffffffffffffffffffff160217905550608082015181600401908051906020019061306b929190613eec565b50905050817f1044b1b099b5303874f4bff2ed20f96da5dd5493d9d4aa96e5d0918aef0e75b060006040518082815260200191505060405180910390a26008600081548092919060010191905055505050565b6000806130c9613823565b156130d75760019150613209565b600090505b600654811015613204576005600082815260200190815260200160002060020160009054906101000a900473ffffffffffffffffffffffffffffffffffffffff16604051808273ffffffffffffffffffffffffffffffffffffffff1673ffffffffffffffffffffffffffffffffffffffff166c0100000000000000000000000002815260140191505060405180910390206000191633604051808273ffffffffffffffffffffffffffffffffffffffff1673ffffffffffffffffffffffffffffffffffffffff166c010000000000000000000000000281526014019150506040518091039020600019161480156131e9575060016005600083815260200190815260200160002060010154145b156131f75760019150613209565b80806001019150506130dc565b600091505b5090565b613215613f6c565b61321d613f6c565b600080613228613f6c565b600060025460405180591061323a5750595b9080825280602002602001820160405250945060009350600092505b60025483101561339857866040518082805190602001908083835b6020831015156132965780518252602082019150602081019050602083039250613271565b6001836020036101000a0380198251168184511680821785525050505050509050019150506040518091039020600019166001600085815260200190815260200160002060020160405180828054600181600116156101000203166002900480156133385780601f10613316576101008083540402835291820191613338565b820191906000526020600020905b815481529060010190602001808311613324575b5050915050604051809103902060001916141561338b576001600084815260200190815260200160002060000154858581518110151561337457fe5b906020019060200201818152505083806001019450505b8280600101935050613256565b836040518059106133a65750595b90808252806020026020018201604052509150600090505b838110156134075784818151811015156133d457fe5b9060200190602002015182828151811015156133ec57fe5b906020019060200201818152505080806001019150506133be565b8195505050505050919050565b33604051808273ffffffffffffffffffffffffffffffffffffffff1673ffffffffffffffffffffffffffffffffffffffff166c010000000000000000000000000281526014019150506040518091039020600019166001600087815260200190815260200160002060010160009054906101000a900473ffffffffffffffffffffffffffffffffffffffff16604051808273ffffffffffffffffffffffffffffffffffffffff1673ffffffffffffffffffffffffffffffffffffffff166c0100000000000000000000000002815260140191505060405180910390206000191614801561352857507fffffffffffffffffffffffffffffffffffffffffffffffffffffffffffffffff61352686612a14565b145b8061354b5750600061353986612a14565b14801561354a5750613549613823565b5b5b8061355a5750613559613972565b5b151561356557600080fd5b60c0604051908101604052808681526020016001600088815260200190815260200160002060010160009054906101000a900473ffffffffffffffffffffffffffffffffffffffff1673ffffffffffffffffffffffffffffffffffffffff16815260200185815260200184815260200183815260200182815250600160008781526020019081526020016000206000820151816000015560208201518160010160006101000a81548173ffffffffffffffffffffffffffffffffffffffff021916908373ffffffffffffffffffffffffffffffffffffffff160217905550604082015181600201908051906020019061365f929190613eec565b50606082015181600301908051906020019061367c929190613eec565b506080820151816004019080519060200190613699929190613eec565b5060a08201518160050190805190602001906136b6929190613eec565b50905050847f1cbf2cd235c38314babf05be51886d932f51271a15781bf861c1d56971e75f7b60405160405180910390a25050505050565b6000809054906101000a900473ffffffffffffffffffffffffffffffffffffffff1673ffffffffffffffffffffffffffffffffffffffff163373ffffffffffffffffffffffffffffffffffffffff1614151561374957600080fd5b6060604051908101604052806006548152602001600981526020018273ffffffffffffffffffffffffffffffffffffffff16815250600560006006548152602001908152602001600020600082015181600001556020820151816001015560408201518160020160006101000a81548173ffffffffffffffffffffffffffffffffffffffff021916908373ffffffffffffffffffffffffffffffffffffffff16021790555090505060066000815480929190600101919050555050565b60006138106130be565b151561381b57600080fd5b600254905090565b60008061382e612ccf565b1561383c576001915061396e565b600090505b600654811015613969576005600082815260200190815260200160002060020160009054906101000a900473ffffffffffffffffffffffffffffffffffffffff16604051808273ffffffffffffffffffffffffffffffffffffffff1673ffffffffffffffffffffffffffffffffffffffff166c0100000000000000000000000002815260140191505060405180910390206000191633604051808273ffffffffffffffffffffffffffffffffffffffff1673ffffffffffffffffffffffffffffffffffffffff166c0100000000000000000000000002815260140191505060405180910390206000191614801561394e575060026005600083815260200190815260200160002060010154145b1561395c576001915061396e565b8080600101915050613841565b600091505b5090565b60008060009054906101000a900473ffffffffffffffffffffffffffffffffffffffff1673ffffffffffffffffffffffffffffffffffffffff163373ffffffffffffffffffffffffffffffffffffffff1614156139d257600190506139d7565b600090505b90565b6000806139e5613f80565b6139ed613f80565b6139f5613f80565b6139fd613f80565b60008033604051808273ffffffffffffffffffffffffffffffffffffffff1673ffffffffffffffffffffffffffffffffffffffff166c01000000000000000000000000028152601401915050604051809103902060001916600160008b815260200190815260200160002060010160009054906101000a900473ffffffffffffffffffffffffffffffffffffffff16604051808273ffffffffffffffffffffffffffffffffffffffff1673ffffffffffffffffffffffffffffffffffffffff166c010000000000000000000000000281526014019150506040518091039020600019161480613af05750613aef6130be565b5b1515613afb57600080fd5b613b1a600160008b815260200190815260200160002060000154612a14565b9050600160008a815260200190815260200160002060000154600160008b815260200190815260200160002060010160009054906101000a900473ffffffffffffffffffffffffffffffffffffffff16600160008c8152602001908152602001600020600201600160008d8152602001908152602001600020600301600160008e8152602001908152602001600020600401600160008f815260200190815260200160002060050186848054600181600116156101000203166002900480601f016020809104026020016040519081016040528092919081815260200182805460018160011615610100020316600290048015613c585780601f10613c2d57610100808354040283529160200191613c58565b820191906000526020600020905b815481529060010190602001808311613c3b57829003601f168201915b50505050509450838054600181600116156101000203166002900480601f016020809104026020016040519081016040528092919081815260200182805460018160011615610100020316600290048015613cf45780601f10613cc957610100808354040283529160200191613cf4565b820191906000526020600020905b815481529060010190602001808311613cd757829003601f168201915b50505050509350828054600181600116156101000203166002900480601f016020809104026020016040519081016040528092919081815260200182805460018160011615610100020316600290048015613d905780601f10613d6557610100808354040283529160200191613d90565b820191906000526020600020905b815481529060010190602001808311613d7357829003601f168201915b50505050509250818054600181600116156101000203166002900480601f016020809104026020016040519081016040528092919081815260200182805460018160011615610100020316600290048015613e2c5780601f10613e0157610100808354040283529160200191613e2c565b820191906000526020600020905b815481529060010190602001808311613e0f57829003601f168201915b50505050509150975097509750975097509750975050919395979092949650565b613e55613f6c565b613e5d613f6c565b6000613e676130be565b1515613e7257600080fd5b600254604051805910613e825750595b90808252806020026020018201604052509150600090505b600254811015613ee45760016000828152602001908152602001600020600001548282815181101515613ec957fe5b90602001906020020181815250508080600101915050613e9a565b819250505090565b828054600181600116156101000203166002900490600052602060002090601f016020900481019282601f10613f2d57805160ff1916838001178555613f5b565b82800160010185558215613f5b579182015b82811115613f5a578251825591602001919060010190613f3f565b5b509050613f689190613f94565b5090565b602060405190810160405280600081525090565b602060405190810160405280600081525090565b613fb691905b80821115613fb2576000816000905550600101613f9a565b5090565b905600a165627a7a72305820ace07ce7d5ff9e3df5e4fb0039d222ed4a24b17b0be29ba9dc4b927ad50c4ccc0029",
  "source": "pragma solidity ^0.4.18;\r\n\r\n// -----------------------------------------------------------------------------\r\n// ID Blockchain PoC - Principal contract\r\n// -----------------------------------------------------------------------------\r\n// File name:   PersonList.sol\r\n// File type:   Solidity Contract\r\n// Version:     0.1.0\r\n// Author:      Marcel Buob\r\n// Creation:    09-FEB-2018\r\n//\r\n// Updates:     20-FEB-2018 | v0.1.0 | Basic fonctionality release\r\n//\r\n// Description: This is the principal contract for the 'ID Blockchain PoC'\r\n//              application.\r\n//\r\n// -----------------------------------------------------------------------------\r\n\r\n\r\n// Import of other needed contracts\r\nimport \"./Ownable.sol\";\r\nimport \"./Structures.sol\";\r\nimport \"./Events.sol\";\r\nimport \"./Validations.sol\";\r\nimport \"./Autorizations.sol\";\r\n\r\n\r\ncontract PersonList is Ownable, Structures, Events, Validations, Autorizations {\r\n\r\n\r\n  // ---------------------------------------------------------------------------\r\n  // Person structure Functions\r\n  // ---------------------------------------------------------------------------\r\n  // Info:  Everyone can add a person and than push the item to validation.\r\n  //        For a valid person Item, it shuld have all validation item checked.\r\n  //        FingerPrint infos can only be done by autorized user and phase.\r\n  //        Before phose 0, only the creator can modify the Person Item.\r\n  //        The Ids list can only be show if admin or Read right.\r\n  //        The creator can show hes own entry (or a readRight).\r\n  //        Simple user (not admin) can not have access to other's entry.\r\n\r\n\r\n  // fetch the number of persons in the contract list --------------------------\r\n  // Only if sys read right (Admin have readRight)\r\n  function getNumberOfPersons() public view returns (uint) {\r\n    require(IsReadPerson());\r\n    return PersonCounter;\r\n  }\r\n\r\n\r\n  // fetch and return all person IDs in a (0 based) array ----------------------\r\n  // Only if sys read right (Admin have readRight)\r\n  function getPersonIds() public view returns (uint[]) {\r\n\r\n    require(IsReadPerson());\r\n\r\n    // prepare output array in memory\r\n    uint[] memory personIds = new uint[](PersonCounter);\r\n\r\n    // iterate over persons and return the personIds array\r\n    for(uint i = 0; i < PersonCounter;  i++) {\r\n        personIds[i] = persons[i].id;\r\n    }\r\n\r\n    return personIds;\r\n  }\r\n\r\n\r\n  // return ids of the current address Person Item created ---------------------\r\n  // Only for the current creator\r\n  function getMyPersonIds() public view returns (uint[]) {\r\n\r\n    // prepare output array in memory\r\n    uint[] memory personIds = new uint[](PersonCounter);\r\n\r\n    // iterate over persons and return the personIds array\r\n    uint incr = 0;\r\n    for(uint i = 0; i < PersonCounter;  i++) {\r\n      if(persons[i].creator == msg.sender){\r\n        personIds[incr] = persons[i].id;\r\n        incr++;\r\n      }\r\n    }\r\n\r\n    uint[] memory MyPersonIds = new uint[](incr);\r\n    for(uint j = 0; j < incr;  j++) {\r\n      MyPersonIds[j] = personIds[j];\r\n    }\r\n\r\n    return MyPersonIds;\r\n  }\r\n\r\n\r\n  // return ids of the current address Person Item created ---------------------\r\n  // Only for the current creator\r\n  function SearchPersonIdsByName(string _name) public view returns (uint[]) {\r\n\r\n    // prepare output array in memory\r\n    uint[] memory personIds = new uint[](PersonCounter);\r\n\r\n    // iterate over persons and return the personIds array\r\n    uint incr = 0;\r\n    for(uint i = 0; i < PersonCounter;  i++) {\r\n\r\n\r\n\r\n      if(keccak256(persons[i].Name) == keccak256(_name)){\r\n        personIds[incr] = persons[i].id;\r\n        incr++;\r\n      }\r\n    }\r\n\r\n    uint[] memory MyPersonIds = new uint[](incr);\r\n    for(uint j = 0; j < incr;  j++) {\r\n      MyPersonIds[j] = personIds[j];\r\n    }\r\n\r\n    return MyPersonIds;\r\n  }\r\n\r\n\r\n  // Add a new person in the list ----------------------------------------------\r\n  // Everyone can do\r\n  function addPerson(string _name, string _givenName,\r\n                      string _gender, string _birthDate) public {\r\n\r\n    // store the person\r\n    persons[PersonCounter] = Person(PersonCounter,  msg.sender,\r\n                                    _name, _givenName, _gender, _birthDate);\r\n\r\n    // Add log\r\n    LogAddPerson(PersonCounter);\r\n    PersonCounter++;\r\n  }\r\n\r\n\r\n  // Modify the Person Item informations ---------------------------------------\r\n  // Only the creator can modify it (or WriteRight if validation 0 / or owner)\r\n  function modifyPerson(uint _ref_Person, string _name, string _givenName,\r\n    string _gender, string _birthDate) public {\r\n\r\n    require((keccak256(persons[_ref_Person].creator) == keccak256(msg.sender) &&\r\n              getValidation(_ref_Person) == -1) ||\r\n              (getValidation(_ref_Person) == 0 && IsWritePerson()) || IsOwner());\r\n\r\n    // store the new info\r\n    persons[_ref_Person] = Person(_ref_Person,\r\n      persons[_ref_Person].creator, _name, _givenName, _gender, _birthDate);\r\n\r\n    // Add log\r\n    LogModifyPerson(_ref_Person);\r\n  }\r\n\r\n\r\n  // Get Person info by id -----------------------------------------------------\r\n  // Only the creator or sys read right\r\n  function GetPerson(uint _ref_Person) public view returns (uint, address,\r\n    string, string, string, string, int) {\r\n\r\n    require(keccak256(persons[_ref_Person].creator) == keccak256(msg.sender) || IsReadPerson());\r\n\r\n    int validationInt =getValidation(persons[_ref_Person].id);\r\n\r\n    return (persons[_ref_Person].id, persons[_ref_Person].creator,\r\n       persons[_ref_Person].Name, persons[_ref_Person].givenName,\r\n       persons[_ref_Person].gender, persons[_ref_Person].birthDate,validationInt);\r\n  }\r\n\r\n\r\n\r\n\r\n\r\n  // ---------------------------------------------------------------------------\r\n  // Photo structure Functions\r\n  // ---------------------------------------------------------------------------\r\n  // Info:\r\n\r\n\r\n  // fetch the number of photo in the contract list --------------------------\r\n  // Only if sys read right (Admin have readRight)\r\n  function getNumberOfPhoto() public view returns (uint) {\r\n    require(IsReadPerson());\r\n    return PhotoCounter;\r\n  }\r\n\r\n\r\n  // fetch and return all photo IDs in a (0 based) array ----------------------\r\n  // Only if sys read right (Admin have readRight)\r\n  function getPhotoIds() public view returns (uint[]) {\r\n\r\n    require(IsReadPerson());\r\n\r\n    // prepare output array in memory\r\n    uint[] memory photoIds = new uint[](PhotoCounter);\r\n\r\n    // iterate over persons and return the personIds array\r\n    for(uint i = 0; i < PhotoCounter;  i++) {\r\n        photoIds[i] = photos[i].id;\r\n    }\r\n\r\n    return photoIds;\r\n  }\r\n\r\n\r\n  // return ids of the current address Photo Item created ---------------------\r\n  // Only for the current creator\r\n  function getMyPhotoIds() public view returns (uint[]) {\r\n\r\n    // prepare output array in memory\r\n    uint[] memory photoIds = new uint[](PhotoCounter);\r\n\r\n    // iterate over persons and return the personIds array\r\n    uint incr = 0;\r\n    for(uint i = 0; i < PhotoCounter;  i++) {\r\n      if(photos[i].creator == msg.sender){\r\n        photoIds[incr] = photos[i].id;\r\n        incr++;\r\n      }\r\n    }\r\n\r\n    uint[] memory MyPhotoIds = new uint[](incr);\r\n    for(uint j = 0; j < incr;  j++) {\r\n      MyPhotoIds[j] = photoIds[j];\r\n    }\r\n\r\n    return MyPhotoIds;\r\n  }\r\n\r\n\r\n  // Add a new photo in the list ----------------------------------------------\r\n  // Everyone can do, but is not validated by owner\r\n  function addPhoto(uint _ref_Person, string _PhotoEncoding,\r\n                                      string _PhotoBlob) public {\r\n\r\n    // store the photo\r\n    photos[PhotoCounter] = Photo(PhotoCounter,\r\n      msg.sender, _ref_Person, _PhotoEncoding, _PhotoBlob, false);\r\n\r\n    // Add log\r\n    LogAddPhoto(_ref_Person);\r\n    PhotoCounter++;\r\n  }\r\n\r\n\r\n  // Modify the phot Item informations ---------------------------------------\r\n  // Only the creator can modify it (or WriteRight if validation 0 / or owner)\r\n  function modifyPhoto(uint _ref_photo, string _PhotoEncoding,\r\n                                        string _PhotoBlob) public {\r\n\r\n    var _ref_Person=photos[_ref_photo].ref_Person;\r\n    require((keccak256(photos[_ref_photo].creator) == keccak256(msg.sender) &&\r\n              getValidation(_ref_Person) == -1) || (getValidation(_ref_Person) == 0 && IsWritePerson())\r\n              || IsOwner());\r\n\r\n    // store the new info\r\n    photos[_ref_photo] = Photo(_ref_photo,\r\n      msg.sender, _ref_Person, _PhotoEncoding, _PhotoBlob, false);\r\n\r\n    // Add log\r\n    LogModifyPhoto(_ref_Person);\r\n  }\r\n\r\n\r\n  // Get Photo info by id -----------------------------------------------------\r\n  // Only the creator (or owner) can see the pic before validated.\r\n  function GetPhoto(uint _ref_Photo) public view\r\n            returns (uint, address, uint, string, string, bool) {\r\n\r\n    if(keccak256(photos[_ref_Photo].creator) == keccak256(msg.sender) ||\r\n       IsReadPerson() && photos[_ref_Photo].ownerValidate || IsOwner()  ){\r\n\r\n       return (photos[_ref_Photo].id, photos[_ref_Photo].creator,\r\n          photos[_ref_Photo].ref_Person, photos[_ref_Photo].PhotoEncoding,\r\n          photos[_ref_Photo].PhotoBlob, photos[_ref_Photo].ownerValidate);\r\n\r\n     } else {\r\n       return (photos[_ref_Photo].id, photos[_ref_Photo].creator,\r\n          photos[_ref_Photo].ref_Person, photos[_ref_Photo].PhotoEncoding,\r\n          \"\", photos[_ref_Photo].ownerValidate);\r\n\r\n     }\r\n  }\r\n\r\n  // Get Photo info by person id -----------------------------------------------------\r\n  // Only the creator (or owner) can see the pic before validated.\r\n  function GetPhotoByPerson(uint _ref_Person) public view\r\n            returns (uint, address, uint, string, string, bool) {\r\n\r\n\r\n\r\n    uint _ref_Photo = 9999999999999;\r\n    // iterate over persons and return the personIds array\r\n    for(uint i = 0; i < PhotoCounter;  i++) {\r\n        if(photos[photos[i].id].ref_Person==_ref_Person){\r\n          _ref_Photo=photos[i].id;\r\n        }\r\n    }\r\n\r\n    if(_ref_Photo==9999999999999){\r\n      return (9999999999999, photos[_ref_Photo].creator,\r\n         9999999999999, photos[_ref_Photo].PhotoEncoding,\r\n         photos[_ref_Photo].PhotoBlob, photos[_ref_Photo].ownerValidate);\r\n    }\r\n\r\n\r\n    if(keccak256(photos[_ref_Photo].creator) == keccak256(msg.sender) ||\r\n       photos[_ref_Photo].ownerValidate || IsOwner()  ){\r\n\r\n       return (photos[_ref_Photo].id, photos[_ref_Photo].creator,\r\n          photos[_ref_Photo].ref_Person, photos[_ref_Photo].PhotoEncoding,\r\n          photos[_ref_Photo].PhotoBlob, photos[_ref_Photo].ownerValidate);\r\n\r\n     } else {\r\n       return (photos[_ref_Photo].id, photos[_ref_Photo].creator,\r\n          photos[_ref_Photo].ref_Person, photos[_ref_Photo].PhotoEncoding,\r\n          \"\", photos[_ref_Photo].ownerValidate);\r\n\r\n     }\r\n  }\r\n\r\n\r\n\r\n\r\n\r\n\r\n\r\n\r\n\r\n\r\n\r\n  // ---------------------------------------------------------------------------\r\n  // Validation structure Functions\r\n  // ---------------------------------------------------------------------------\r\n  // Info:\r\n  //\r\n  //\r\n\r\n\r\n  // Push to validation the person item in phase 0 -----------------------------\r\n  // Only the creator can push it (or sys write right)\r\n  function PuchPersonToValidation(uint _ref_Person, string _ValDate) public {\r\n\r\n    require((keccak256(persons[_ref_Person].creator) == keccak256(msg.sender) &&\r\n              getValidation(_ref_Person) == -1) || IsWritePerson());\r\n\r\n    // store the validation phase '0'\r\n    validations[ValidationCounter] = Validation(ValidationCounter,\r\n        _ref_Person, 0, msg.sender, _ValDate);\r\n\r\n    // Add log\r\n    LogAddValidation(_ref_Person, 0);\r\n    ValidationCounter++;\r\n  }\r\n\r\n  // Validate the person item in phase 1 ---------------------------------------\r\n  // Only admin can validate\r\n  function FinalPersonValidation(uint _ref_Person, string _ValDate) public {\r\n\r\n    require(IsAdmin() && getValidation(_ref_Person) == 0 );\r\n\r\n    // store the validation phase '0'\r\n    validations[ValidationCounter] = Validation(ValidationCounter,\r\n        _ref_Person, 1, msg.sender, _ValDate);\r\n\r\n    // Add log\r\n    LogAddValidation(_ref_Person, 1);\r\n    ValidationCounter++;\r\n  }\r\n\r\n  // Validate the photo\r\n  // The photo can only be viewed by the creator until it's validated by owner.\r\n  function ValidatePhoto(uint _ref_photo) public {\r\n    //require(IsOwner());\r\n\r\n    var _ref_Person=photos[_ref_photo].ref_Person;\r\n\r\n    // store the new info\r\n    photos[_ref_photo] = Photo(_ref_photo,\r\n      photos[_ref_photo].creator, photos[_ref_photo].ref_Person,\r\n       photos[_ref_photo].PhotoEncoding, photos[_ref_photo].PhotoBlob, true);\r\n\r\n    // Add log\r\n    LogValidePhoto(_ref_Person);\r\n  }\r\n\r\n\r\n\r\n\r\n\r\n\r\n\r\n\r\n\r\n\r\n\r\n  // Get Contract owner info ---------------------------------------------------\r\n  function GetContractOwner() public view returns (address) {\r\n    return owner;\r\n  }\r\n\r\n\r\n\r\n  // deactivate the contract\r\n  function kill() public onlyOwner {\r\n    selfdestruct(owner);\r\n  }\r\n\r\n}\r\n",
  "sourcePath": "D:\\ChainSkills\\Training\\IDchain\\contracts\\PersonList.sol",
  "compiler": {
    "name": "solc",
    "version": "0.4.18+commit.9cf6e910.Emscripten.clang"
  },
  "schemaVersion": "1.0.1",
  "updatedAt": "2018-07-19T14:41:31.112Z"
}