{
  "contractName": "PersonList",
  "abi": [
    {
      "constant": true,
      "inputs": [
        {
          "name": "_ref_Admin",
          "type": "uint256"
        }
      ],
      "name": "GetAdministrator",
      "outputs": [
        {
          "name": "",
          "type": "uint256"
        },
        {
          "name": "",
          "type": "uint256"
        },
        {
          "name": "",
          "type": "address"
        }
      ],
      "payable": false,
      "stateMutability": "view",
      "type": "function"
    },
    {
      "constant": false,
      "inputs": [
        {
          "name": "_id",
          "type": "uint256"
        }
      ],
      "name": "modifyAdministrator",
      "outputs": [],
      "payable": false,
      "stateMutability": "nonpayable",
      "type": "function"
    },
    {
      "constant": true,
      "inputs": [
        {
          "name": "_ref_Person",
          "type": "uint256"
        }
      ],
      "name": "getValidation",
      "outputs": [
        {
          "name": "",
          "type": "int256"
        }
      ],
      "payable": false,
      "stateMutability": "view",
      "type": "function"
    },
    {
      "constant": true,
      "inputs": [],
      "name": "getAdministratorsIds",
      "outputs": [
        {
          "name": "",
          "type": "uint256[]"
        }
      ],
      "payable": false,
      "stateMutability": "view",
      "type": "function"
    },
    {
      "constant": true,
      "inputs": [],
      "name": "IsAdmin",
      "outputs": [
        {
          "name": "",
          "type": "bool"
        }
      ],
      "payable": false,
      "stateMutability": "view",
      "type": "function"
    },
    {
      "constant": true,
      "inputs": [],
      "name": "IsReadPerson",
      "outputs": [
        {
          "name": "",
          "type": "bool"
        }
      ],
      "payable": false,
      "stateMutability": "view",
      "type": "function"
    },
    {
      "constant": false,
      "inputs": [
        {
          "name": "_addr",
          "type": "address"
        }
      ],
      "name": "addAdministrator",
      "outputs": [],
      "payable": false,
      "stateMutability": "nonpayable",
      "type": "function"
    },
    {
      "constant": true,
      "inputs": [],
      "name": "IsWritePerson",
      "outputs": [
        {
          "name": "",
          "type": "bool"
        }
      ],
      "payable": false,
      "stateMutability": "view",
      "type": "function"
    },
    {
      "constant": true,
      "inputs": [],
      "name": "IsOwner",
      "outputs": [
        {
          "name": "",
          "type": "bool"
        }
      ],
      "payable": false,
      "stateMutability": "view",
      "type": "function"
    },
    {
      "anonymous": false,
      "inputs": [
        {
          "indexed": true,
          "name": "_ref_Person",
          "type": "uint256"
        }
      ],
      "name": "LogAddPerson",
      "type": "event"
    },
    {
      "anonymous": false,
      "inputs": [
        {
          "indexed": true,
          "name": "_ref_Person",
          "type": "uint256"
        }
      ],
      "name": "LogAddInformation",
      "type": "event"
    },
    {
      "anonymous": false,
      "inputs": [
        {
          "indexed": true,
          "name": "_ref_Person",
          "type": "uint256"
        }
      ],
      "name": "LogModifyPerson",
      "type": "event"
    },
    {
      "anonymous": false,
      "inputs": [
        {
          "indexed": true,
          "name": "_ref_Person",
          "type": "uint256"
        },
        {
          "indexed": false,
          "name": "_status",
          "type": "uint256"
        }
      ],
      "name": "LogAddValidation",
      "type": "event"
    },
    {
      "anonymous": false,
      "inputs": [
        {
          "indexed": true,
          "name": "_ref_Person",
          "type": "uint256"
        }
      ],
      "name": "LogAddPhoto",
      "type": "event"
    },
    {
      "anonymous": false,
      "inputs": [
        {
          "indexed": true,
          "name": "_ref_Person",
          "type": "uint256"
        }
      ],
      "name": "LogModifyPhoto",
      "type": "event"
    },
    {
      "anonymous": false,
      "inputs": [
        {
          "indexed": true,
          "name": "_ref_Person",
          "type": "uint256"
        }
      ],
      "name": "LogValidePhoto",
      "type": "event"
    },
    {
      "constant": true,
      "inputs": [],
      "name": "getNumberOfPersons",
      "outputs": [
        {
          "name": "",
          "type": "uint256"
        }
      ],
      "payable": false,
      "stateMutability": "view",
      "type": "function"
    },
    {
      "constant": true,
      "inputs": [],
      "name": "getPersonIds",
      "outputs": [
        {
          "name": "",
          "type": "uint256[]"
        }
      ],
      "payable": false,
      "stateMutability": "view",
      "type": "function"
    },
    {
      "constant": true,
      "inputs": [],
      "name": "getMyPersonIds",
      "outputs": [
        {
          "name": "",
          "type": "uint256[]"
        }
      ],
      "payable": false,
      "stateMutability": "view",
      "type": "function"
    },
    {
      "constant": true,
      "inputs": [
        {
          "name": "_name",
          "type": "string"
        }
      ],
      "name": "SearchPersonIdsByName",
      "outputs": [
        {
          "name": "",
          "type": "uint256[]"
        }
      ],
      "payable": false,
      "stateMutability": "view",
      "type": "function"
    },
    {
      "constant": false,
      "inputs": [
        {
          "name": "_name",
          "type": "string"
        },
        {
          "name": "_givenName",
          "type": "string"
        },
        {
          "name": "_gender",
          "type": "string"
        },
        {
          "name": "_birthDate",
          "type": "string"
        }
      ],
      "name": "addPerson",
      "outputs": [],
      "payable": false,
      "stateMutability": "nonpayable",
      "type": "function"
    },
    {
      "constant": false,
      "inputs": [
        {
          "name": "_ref_Person",
          "type": "uint256"
        },
        {
          "name": "_name",
          "type": "string"
        },
        {
          "name": "_givenName",
          "type": "string"
        },
        {
          "name": "_gender",
          "type": "string"
        },
        {
          "name": "_birthDate",
          "type": "string"
        }
      ],
      "name": "modifyPerson",
      "outputs": [],
      "payable": false,
      "stateMutability": "nonpayable",
      "type": "function"
    },
    {
      "constant": true,
      "inputs": [
        {
          "name": "_ref_Person",
          "type": "uint256"
        }
      ],
      "name": "GetPerson",
      "outputs": [
        {
          "name": "",
          "type": "uint256"
        },
        {
          "name": "",
          "type": "address"
        },
        {
          "name": "",
          "type": "string"
        },
        {
          "name": "",
          "type": "string"
        },
        {
          "name": "",
          "type": "string"
        },
        {
          "name": "",
          "type": "string"
        },
        {
          "name": "",
          "type": "int256"
        }
      ],
      "payable": false,
      "stateMutability": "view",
      "type": "function"
    },
    {
      "constant": true,
      "inputs": [],
      "name": "getNumberOfPhoto",
      "outputs": [
        {
          "name": "",
          "type": "uint256"
        }
      ],
      "payable": false,
      "stateMutability": "view",
      "type": "function"
    },
    {
      "constant": true,
      "inputs": [],
      "name": "getPhotoIds",
      "outputs": [
        {
          "name": "",
          "type": "uint256[]"
        }
      ],
      "payable": false,
      "stateMutability": "view",
      "type": "function"
    },
    {
      "constant": true,
      "inputs": [],
      "name": "getMyPhotoIds",
      "outputs": [
        {
          "name": "",
          "type": "uint256[]"
        }
      ],
      "payable": false,
      "stateMutability": "view",
      "type": "function"
    },
    {
      "constant": false,
      "inputs": [
        {
          "name": "_ref_Person",
          "type": "uint256"
        },
        {
          "name": "_PhotoEncoding",
          "type": "string"
        },
        {
          "name": "_PhotoBlob",
          "type": "string"
        }
      ],
      "name": "addPhoto",
      "outputs": [],
      "payable": false,
      "stateMutability": "nonpayable",
      "type": "function"
    },
    {
      "constant": false,
      "inputs": [
        {
          "name": "_ref_photo",
          "type": "uint256"
        },
        {
          "name": "_PhotoEncoding",
          "type": "string"
        },
        {
          "name": "_PhotoBlob",
          "type": "string"
        }
      ],
      "name": "modifyPhoto",
      "outputs": [],
      "payable": false,
      "stateMutability": "nonpayable",
      "type": "function"
    },
    {
      "constant": true,
      "inputs": [
        {
          "name": "_ref_Photo",
          "type": "uint256"
        }
      ],
      "name": "GetPhoto",
      "outputs": [
        {
          "name": "",
          "type": "uint256"
        },
        {
          "name": "",
          "type": "address"
        },
        {
          "name": "",
          "type": "uint256"
        },
        {
          "name": "",
          "type": "string"
        },
        {
          "name": "",
          "type": "string"
        },
        {
          "name": "",
          "type": "bool"
        }
      ],
      "payable": false,
      "stateMutability": "view",
      "type": "function"
    },
    {
      "constant": true,
      "inputs": [
        {
          "name": "_ref_Person",
          "type": "uint256"
        }
      ],
      "name": "GetPhotoByPerson",
      "outputs": [
        {
          "name": "",
          "type": "uint256"
        },
        {
          "name": "",
          "type": "address"
        },
        {
          "name": "",
          "type": "uint256"
        },
        {
          "name": "",
          "type": "string"
        },
        {
          "name": "",
          "type": "string"
        },
        {
          "name": "",
          "type": "bool"
        }
      ],
      "payable": false,
      "stateMutability": "view",
      "type": "function"
    },
    {
      "constant": false,
      "inputs": [
        {
          "name": "_ref_Person",
          "type": "uint256"
        },
        {
          "name": "_ValDate",
          "type": "string"
        }
      ],
      "name": "PuchPersonToValidation",
      "outputs": [],
      "payable": false,
      "stateMutability": "nonpayable",
      "type": "function"
    },
    {
      "constant": false,
      "inputs": [
        {
          "name": "_ref_Person",
          "type": "uint256"
        },
        {
          "name": "_ValDate",
          "type": "string"
        }
      ],
      "name": "FinalPersonValidation",
      "outputs": [],
      "payable": false,
      "stateMutability": "nonpayable",
      "type": "function"
    },
    {
      "constant": false,
      "inputs": [
        {
          "name": "_ref_photo",
          "type": "uint256"
        }
      ],
      "name": "ValidatePhoto",
      "outputs": [],
      "payable": false,
      "stateMutability": "nonpayable",
      "type": "function"
    },
    {
      "constant": true,
      "inputs": [],
      "name": "GetContractOwner",
      "outputs": [
        {
          "name": "",
          "type": "address"
        }
      ],
      "payable": false,
      "stateMutability": "view",
      "type": "function"
    },
    {
      "constant": false,
      "inputs": [],
      "name": "kill",
      "outputs": [],
      "payable": false,
      "stateMutability": "nonpayable",
      "type": "function"
    }
  ],
  "bytecode": "0x60806040526000600255600060045560006006556000600855336000806101000a81548173ffffffffffffffffffffffffffffffffffffffff021916908373ffffffffffffffffffffffffffffffffffffffff16021790555061409d806100676000396000f30060806040526004361061016a576000357c0100000000000000000000000000000000000000000000000000000000900463ffffffff1680630421b1611461016f578063111b2185146102285780631bc8fb48146102a357806328ee52c61461035c57806332f08ac1146103c857806340a1aadd1461043b57806341c0e1b5146104665780635964d0c61461047d57806359b5a288146104aa57806360a8940e1461051657806364467f861461065157806368c203631461067e57806376c096d2146107dc5780638392ae5c1461093a5780639b276a681461097b5780639bee9398146109d25780639e15e14514610a3e578063acad866714610aaa578063b322d5c914610ad9578063b8fcc76214610b4c578063be551a3f14610b7b578063c9673f9e14610c39578063c999117614610d7e578063caac5da714610dc1578063d6e9426e14610dec578063e4183cb114610e1b578063edbd1b9414610e4a578063f1b1337714611075575b600080fd5b34801561017b57600080fd5b5061022660048036038101908080359060200190929190803590602001908201803590602001908080601f0160208091040260200160405190810160405280939291908181526020018383808284378201915050505050509192919290803590602001908201803590602001908080601f01602080910402602001604051908101604052809392919081815260200183838082843782019150505050505091929192905050506110e1565b005b34801561023457600080fd5b506102536004803603810190808035906020019092919050505061123b565b604051808481526020018381526020018273ffffffffffffffffffffffffffffffffffffffff1673ffffffffffffffffffffffffffffffffffffffff168152602001935050505060405180910390f35b3480156102af57600080fd5b5061035a60048036038101908080359060200190929190803590602001908201803590602001908080601f0160208091040260200160405190810160405280939291908181526020018383808284378201915050505050509192919290803590602001908201803590602001908080601f01602080910402602001604051908101604052809392919081815260200183838082843782019150505050505091929192905050506112b2565b005b34801561036857600080fd5b50610371611563565b6040518080602001828103825283818151815260200191508051906020019060200280838360005b838110156103b4578082015181840152602081019050610399565b505050509050019250505060405180910390f35b3480156103d457600080fd5b5061043960048036038101908080359060200190929190803590602001908201803590602001908080601f0160208091040260200160405190810160405280939291908181526020018383808284378201915050505050509192919290505050611606565b005b34801561044757600080fd5b50610450611757565b6040518082815260200191505060405180910390f35b34801561047257600080fd5b5061047b611774565b005b34801561048957600080fd5b506104a860048036038101908080359060200190929190505050611809565b005b3480156104b657600080fd5b506104bf611b0f565b6040518080602001828103825283818151815260200191508051906020019060200280838360005b838110156105025780820151818401526020810190506104e7565b505050509050019250505060405180910390f35b34801561052257600080fd5b5061064f600480360381019080803590602001908201803590602001908080601f0160208091040260200160405190810160405280939291908181526020018383808284378201915050505050509192919290803590602001908201803590602001908080601f0160208091040260200160405190810160405280939291908181526020018383808284378201915050505050509192919290803590602001908201803590602001908080601f0160208091040260200160405190810160405280939291908181526020018383808284378201915050505050509192919290803590602001908201803590602001908080601f0160208091040260200160405190810160405280939291908181526020018383808284378201915050505050509192919290505050611c9e565b005b34801561065d57600080fd5b5061067c60048036038101908080359060200190929190505050611e08565b005b34801561068a57600080fd5b506106a960048036038101908080359060200190929190505050611f58565b604051808781526020018673ffffffffffffffffffffffffffffffffffffffff1673ffffffffffffffffffffffffffffffffffffffff168152602001858152602001806020018060200184151515158152602001838103835286818151815260200191508051906020019080838360005b8381101561073557808201518184015260208101905061071a565b50505050905090810190601f1680156107625780820380516001836020036101000a031916815260200191505b50838103825285818151815260200191508051906020019080838360005b8381101561079b578082015181840152602081019050610780565b50505050905090810190601f1680156107c85780820380516001836020036101000a031916815260200191505b509850505050505050505060405180910390f35b3480156107e857600080fd5b506108076004803603810190808035906020019092919050505061264d565b604051808781526020018673ffffffffffffffffffffffffffffffffffffffff1673ffffffffffffffffffffffffffffffffffffffff168152602001858152602001806020018060200184151515158152602001838103835286818151815260200191508051906020019080838360005b83811015610893578082015181840152602081019050610878565b50505050905090810190601f1680156108c05780820380516001836020036101000a031916815260200191505b50838103825285818151815260200191508051906020019080838360005b838110156108f95780820151818401526020810190506108de565b50505050905090810190601f1680156109265780820380516001836020036101000a031916815260200191505b509850505050505050505060405180910390f35b34801561094657600080fd5b5061096560048036038101908080359060200190929190505050612ae8565b6040518082815260200191505060405180910390f35b34801561098757600080fd5b50610990612b6e565b604051808273ffffffffffffffffffffffffffffffffffffffff1673ffffffffffffffffffffffffffffffffffffffff16815260200191505060405180910390f35b3480156109de57600080fd5b506109e7612b97565b6040518080602001828103825283818151815260200191508051906020019060200280838360005b83811015610a2a578082015181840152602081019050610a0f565b505050509050019250505060405180910390f35b348015610a4a57600080fd5b50610a53612c27565b6040518080602001828103825283818151815260200191508051906020019060200280838360005b83811015610a96578082015181840152602081019050610a7b565b505050509050019250505060405180910390f35b348015610ab657600080fd5b50610abf612db6565b604051808215151515815260200191505060405180910390f35b348015610ae557600080fd5b50610b4a60048036038101908080359060200190929190803590602001908201803590602001908080601f0160208091040260200160405190810160405280939291908181526020018383808284378201915050505050509192919290505050612f4d565b005b348015610b5857600080fd5b50610b616131a5565b604051808215151515815260200191505060405180910390f35b348015610b8757600080fd5b50610be2600480360381019080803590602001908201803590602001908080601f01602080910402602001604051908101604052809392919081815260200183838082843782019150505050505091929192905050506132f4565b6040518080602001828103825283818151815260200191508051906020019060200280838360005b83811015610c25578082015181840152602081019050610c0a565b505050509050019250505060405180910390f35b348015610c4557600080fd5b50610d7c60048036038101908080359060200190929190803590602001908201803590602001908080601f0160208091040260200160405190810160405280939291908181526020018383808284378201915050505050509192919290803590602001908201803590602001908080601f0160208091040260200160405190810160405280939291908181526020018383808284378201915050505050509192919290803590602001908201803590602001908080601f0160208091040260200160405190810160405280939291908181526020018383808284378201915050505050509192919290803590602001908201803590602001908080601f016020809104026020016040519081016040528093929190818152602001838380828437820191505050505050919291929050505061350a565b005b348015610d8a57600080fd5b50610dbf600480360381019080803573ffffffffffffffffffffffffffffffffffffffff1690602001909291905050506137e4565b005b348015610dcd57600080fd5b50610dd66138fc565b6040518082815260200191505060405180910390f35b348015610df857600080fd5b50610e01613919565b604051808215151515815260200191505060405180910390f35b348015610e2757600080fd5b50610e30613a68565b604051808215151515815260200191505060405180910390f35b348015610e5657600080fd5b50610e7560048036038101908080359060200190929190505050613ad0565b604051808881526020018773ffffffffffffffffffffffffffffffffffffffff1673ffffffffffffffffffffffffffffffffffffffff1681526020018060200180602001806020018060200186815260200185810385528a818151815260200191508051906020019080838360005b83811015610eff578082015181840152602081019050610ee4565b50505050905090810190601f168015610f2c5780820380516001836020036101000a031916815260200191505b50858103845289818151815260200191508051906020019080838360005b83811015610f65578082015181840152602081019050610f4a565b50505050905090810190601f168015610f925780820380516001836020036101000a031916815260200191505b50858103835288818151815260200191508051906020019080838360005b83811015610fcb578082015181840152602081019050610fb0565b50505050905090810190601f168015610ff85780820380516001836020036101000a031916815260200191505b50858103825287818151815260200191508051906020019080838360005b83811015611031578082015181840152602081019050611016565b50505050905090810190601f16801561105e5780820380516001836020036101000a031916815260200191505b509b50505050505050505050505060405180910390f35b34801561108157600080fd5b5061108a613f29565b6040518080602001828103825283818151815260200191508051906020019060200280838360005b838110156110cd5780820151818401526020810190506110b2565b505050509050019250505060405180910390f35b60c06040519081016040528060045481526020013373ffffffffffffffffffffffffffffffffffffffff168152602001848152602001838152602001828152602001600015158152506003600060045481526020019081526020016000206000820151816000015560208201518160010160006101000a81548173ffffffffffffffffffffffffffffffffffffffff021916908373ffffffffffffffffffffffffffffffffffffffff1602179055506040820151816002015560608201518160030190805190602001906111b6929190613fcc565b5060808201518160040190805190602001906111d3929190613fcc565b5060a08201518160050160006101000a81548160ff021916908315150217905550905050827f8ef852332d1e8d4844d0758d7c1fe773bc54682b1ece04c9ca3bf24af8c6239c60405160405180910390a2600460008154809291906001019190505550505050565b6000806000600560008581526020019081526020016000206000015460056000868152602001908152602001600020600101546005600087815260200190815260200160002060020160009054906101000a900473ffffffffffffffffffffffffffffffffffffffff169250925092509193909250565b60006003600085815260200190815260200160002060020154905033604051808273ffffffffffffffffffffffffffffffffffffffff1673ffffffffffffffffffffffffffffffffffffffff166c010000000000000000000000000281526014019150506040518091039020600019166003600086815260200190815260200160002060010160009054906101000a900473ffffffffffffffffffffffffffffffffffffffff16604051808273ffffffffffffffffffffffffffffffffffffffff1673ffffffffffffffffffffffffffffffffffffffff166c010000000000000000000000000281526014019150506040518091039020600019161480156113e157507fffffffffffffffffffffffffffffffffffffffffffffffffffffffffffffffff6113df82612ae8565b145b80611404575060006113f282612ae8565b1480156114035750611402613919565b5b5b806114135750611412613a68565b5b151561141e57600080fd5b60c0604051908101604052808581526020013373ffffffffffffffffffffffffffffffffffffffff16815260200182815260200184815260200183815260200160001515815250600360008681526020019081526020016000206000820151816000015560208201518160010160006101000a81548173ffffffffffffffffffffffffffffffffffffffff021916908373ffffffffffffffffffffffffffffffffffffffff1602179055506040820151816002015560608201518160030190805190602001906114ef929190613fcc565b50608082015181600401908051906020019061150c929190613fcc565b5060a08201518160050160006101000a81548160ff021916908315150217905550905050807fe2c4612958605bc48ffae69320cf3cc02efd214d5984431c4020b6815ac1798860405160405180910390a250505050565b60608060006115706131a5565b151561157b57600080fd5b6004546040519080825280602002602001820160405280156115ac5781602001602082028038833980820191505090505b509150600090505b6004548110156115fe57600360008281526020019081526020016000206000015482828151811015156115e357fe5b906020019060200201818152505080806001019150506115b4565b819250505090565b61160e612db6565b80156116225750600061162083612ae8565b145b151561162d57600080fd5b60a0604051908101604052806008548152602001838152602001600181526020013373ffffffffffffffffffffffffffffffffffffffff1681526020018281525060076000600854815260200190815260200160002060008201518160000155602082015181600101556040820151816002015560608201518160030160006101000a81548173ffffffffffffffffffffffffffffffffffffffff021916908373ffffffffffffffffffffffffffffffffffffffff1602179055506080820151816004019080519060200190611704929190613fcc565b50905050817f1044b1b099b5303874f4bff2ed20f96da5dd5493d9d4aa96e5d0918aef0e75b060016040518082815260200191505060405180910390a26008600081548092919060010191905055505050565b60006117616131a5565b151561176c57600080fd5b600454905090565b6000809054906101000a900473ffffffffffffffffffffffffffffffffffffffff1673ffffffffffffffffffffffffffffffffffffffff163373ffffffffffffffffffffffffffffffffffffffff161415156117cf57600080fd5b6000809054906101000a900473ffffffffffffffffffffffffffffffffffffffff1673ffffffffffffffffffffffffffffffffffffffff16ff5b60006003600083815260200190815260200160002060020154905060c0604051908101604052808381526020016003600085815260200190815260200160002060010160009054906101000a900473ffffffffffffffffffffffffffffffffffffffff1673ffffffffffffffffffffffffffffffffffffffff16815260200160036000858152602001908152602001600020600201548152602001600360008581526020019081526020016000206003018054600181600116156101000203166002900480601f01602080910402602001604051908101604052809291908181526020018280546001816001161561010002031660029004801561194e5780601f106119235761010080835404028352916020019161194e565b820191906000526020600020905b81548152906001019060200180831161193157829003601f168201915b50505050508152602001600360008581526020019081526020016000206004018054600181600116156101000203166002900480601f016020809104026020016040519081016040528092919081815260200182805460018160011615610100020316600290048015611a025780601f106119d757610100808354040283529160200191611a02565b820191906000526020600020905b8154815290600101906020018083116119e557829003601f168201915b5050505050815260200160011515815250600360008481526020019081526020016000206000820151816000015560208201518160010160006101000a81548173ffffffffffffffffffffffffffffffffffffffff021916908373ffffffffffffffffffffffffffffffffffffffff160217905550604082015181600201556060820151816003019080519060200190611a9d929190613fcc565b506080820151816004019080519060200190611aba929190613fcc565b5060a08201518160050160006101000a81548160ff021916908315150217905550905050807f0c190dd629962e1223e7623c3879e264dcc6f5d5bce9f4c2c1e5986397bea88860405160405180910390a25050565b60608060008060606000600254604051908082528060200260200182016040528015611b4a5781602001602082028038833980820191505090505b50945060009350600092505b600254831015611c13573373ffffffffffffffffffffffffffffffffffffffff166001600085815260200190815260200160002060010160009054906101000a900473ffffffffffffffffffffffffffffffffffffffff1673ffffffffffffffffffffffffffffffffffffffff161415611c065760016000848152602001908152602001600020600001548585815181101515611bef57fe5b906020019060200201818152505083806001019450505b8280600101935050611b56565b83604051908082528060200260200182016040528015611c425781602001602082028038833980820191505090505b509150600090505b83811015611c93578481815181101515611c6057fe5b906020019060200201518282815181101515611c7857fe5b90602001906020020181815250508080600101915050611c4a565b819550505050505090565b60c06040519081016040528060025481526020013373ffffffffffffffffffffffffffffffffffffffff168152602001858152602001848152602001838152602001828152506001600060025481526020019081526020016000206000820151816000015560208201518160010160006101000a81548173ffffffffffffffffffffffffffffffffffffffff021916908373ffffffffffffffffffffffffffffffffffffffff1602179055506040820151816002019080519060200190611d66929190613fcc565b506060820151816003019080519060200190611d83929190613fcc565b506080820151816004019080519060200190611da0929190613fcc565b5060a0820151816005019080519060200190611dbd929190613fcc565b509050506002547fa877cc0359af613466e5e931899542297dd8484a43d0b418a01585303178d80460405160405180910390a260026000815480929190600101919050555050505050565b60008060009054906101000a900473ffffffffffffffffffffffffffffffffffffffff1673ffffffffffffffffffffffffffffffffffffffff163373ffffffffffffffffffffffffffffffffffffffff16141515611e6557600080fd5b6005600083815260200190815260200160002060020160009054906101000a900473ffffffffffffffffffffffffffffffffffffffff169050606060405190810160405280838152602001606381526020018273ffffffffffffffffffffffffffffffffffffffff1681525060056000848152602001908152602001600020600082015181600001556020820151816001015560408201518160020160006101000a81548173ffffffffffffffffffffffffffffffffffffffff021916908373ffffffffffffffffffffffffffffffffffffffff1602179055509050506006600081548092919060010191905055505050565b600080600060608060008060006509184e729fff9150600090505b600454811015611fd857886003600060036000858152602001908152602001600020600001548152602001908152602001600020600201541415611fcb57600360008281526020019081526020016000206000015491505b8080600101915050611f73565b6509184e729fff8214156121ca576509184e729fff6003600084815260200190815260200160002060010160009054906101000a900473ffffffffffffffffffffffffffffffffffffffff166509184e729fff60036000868152602001908152602001600020600301600360008781526020019081526020016000206004016003600088815260200190815260200160002060050160009054906101000a900460ff16859550839350828054600181600116156101000203166002900480601f0160208091040260200160405190810160405280929190818152602001828054600181600116156101000203166002900480156121165780601f106120eb57610100808354040283529160200191612116565b820191906000526020600020905b8154815290600101906020018083116120f957829003601f168201915b50505050509250818054600181600116156101000203166002900480601f0160208091040260200160405190810160405280929190818152602001828054600181600116156101000203166002900480156121b25780601f10612187576101008083540402835291602001916121b2565b820191906000526020600020905b81548152906001019060200180831161219557829003601f168201915b50505050509150975097509750975097509750612642565b33604051808273ffffffffffffffffffffffffffffffffffffffff1673ffffffffffffffffffffffffffffffffffffffff166c010000000000000000000000000281526014019150506040518091039020600019166003600084815260200190815260200160002060010160009054906101000a900473ffffffffffffffffffffffffffffffffffffffff16604051808273ffffffffffffffffffffffffffffffffffffffff1673ffffffffffffffffffffffffffffffffffffffff166c0100000000000000000000000002815260140191505060405180910390206000191614806122d657506003600083815260200190815260200160002060050160009054906101000a900460ff165b806122e557506122e4613a68565b5b156124e85760036000838152602001908152602001600020600001546003600084815260200190815260200160002060010160009054906101000a900473ffffffffffffffffffffffffffffffffffffffff16600360008581526020019081526020016000206002015460036000868152602001908152602001600020600301600360008781526020019081526020016000206004016003600088815260200190815260200160002060050160009054906101000a900460ff16828054600181600116156101000203166002900480601f0160208091040260200160405190810160405280929190818152602001828054600181600116156101000203166002900480156124345780601f1061240957610100808354040283529160200191612434565b820191906000526020600020905b81548152906001019060200180831161241757829003601f168201915b50505050509250818054600181600116156101000203166002900480601f0160208091040260200160405190810160405280929190818152602001828054600181600116156101000203166002900480156124d05780601f106124a5576101008083540402835291602001916124d0565b820191906000526020600020905b8154815290600101906020018083116124b357829003601f168201915b50505050509150975097509750975097509750612642565b60036000838152602001908152602001600020600001546003600084815260200190815260200160002060010160009054906101000a900473ffffffffffffffffffffffffffffffffffffffff166003600085815260200190815260200160002060020154600360008681526020019081526020016000206003016003600087815260200190815260200160002060050160009054906101000a900460ff16818054600181600116156101000203166002900480601f01602080910402602001604051908101604052809291908181526020018280546001816001161561010002031660029004801561261c5780601f106125f15761010080835404028352916020019161261c565b820191906000526020600020905b8154815290600101906020018083116125ff57829003601f168201915b505050505091506020604051908101604052806000815250909750975097509750975097505b505091939550919395565b6000806000606080600033604051808273ffffffffffffffffffffffffffffffffffffffff1673ffffffffffffffffffffffffffffffffffffffff166c010000000000000000000000000281526014019150506040518091039020600019166003600089815260200190815260200160002060010160009054906101000a900473ffffffffffffffffffffffffffffffffffffffff16604051808273ffffffffffffffffffffffffffffffffffffffff1673ffffffffffffffffffffffffffffffffffffffff166c01000000000000000000000000028152601401915050604051809103902060001916148061277357506127466131a5565b801561277257506003600088815260200190815260200160002060050160009054906101000a900460ff165b5b806127825750612781613a68565b5b156129855760036000888152602001908152602001600020600001546003600089815260200190815260200160002060010160009054906101000a900473ffffffffffffffffffffffffffffffffffffffff16600360008a815260200190815260200160002060020154600360008b8152602001908152602001600020600301600360008c8152602001908152602001600020600401600360008d815260200190815260200160002060050160009054906101000a900460ff16828054600181600116156101000203166002900480601f0160208091040260200160405190810160405280929190818152602001828054600181600116156101000203166002900480156128d15780601f106128a6576101008083540402835291602001916128d1565b820191906000526020600020905b8154815290600101906020018083116128b457829003601f168201915b50505050509250818054600181600116156101000203166002900480601f01602080910402602001604051908101604052809291908181526020018280546001816001161561010002031660029004801561296d5780601f106129425761010080835404028352916020019161296d565b820191906000526020600020905b81548152906001019060200180831161295057829003601f168201915b50505050509150955095509550955095509550612adf565b60036000888152602001908152602001600020600001546003600089815260200190815260200160002060010160009054906101000a900473ffffffffffffffffffffffffffffffffffffffff16600360008a815260200190815260200160002060020154600360008b8152602001908152602001600020600301600360008c815260200190815260200160002060050160009054906101000a900460ff16818054600181600116156101000203166002900480601f016020809104026020016040519081016040528092919081815260200182805460018160011615610100020316600290048015612ab95780601f10612a8e57610100808354040283529160200191612ab9565b820191906000526020600020905b815481529060010190602001808311612a9c57829003601f168201915b505050505091506020604051908101604052806000815250909550955095509550955095505b91939550919395565b60008060007fffffffffffffffffffffffffffffffffffffffffffffffffffffffffffffffff9150600090505b600854811015612b64578360076000838152602001908152602001600020600101541415612b5757600760008281526020019081526020016000206002015491505b8080600101915050612b15565b8192505050919050565b60008060009054906101000a900473ffffffffffffffffffffffffffffffffffffffff16905090565b6060806000600654604051908082528060200260200182016040528015612bcd5781602001602082028038833980820191505090505b509150600090505b600654811015612c1f5760056000828152602001908152602001600020600001548282815181101515612c0457fe5b90602001906020020181815250508080600101915050612bd5565b819250505090565b60608060008060606000600454604051908082528060200260200182016040528015612c625781602001602082028038833980820191505090505b50945060009350600092505b600454831015612d2b573373ffffffffffffffffffffffffffffffffffffffff166003600085815260200190815260200160002060010160009054906101000a900473ffffffffffffffffffffffffffffffffffffffff1673ffffffffffffffffffffffffffffffffffffffff161415612d1e5760036000848152602001908152602001600020600001548585815181101515612d0757fe5b906020019060200201818152505083806001019450505b8280600101935050612c6e565b83604051908082528060200260200182016040528015612d5a5781602001602082028038833980820191505090505b509150600090505b83811015612dab578481815181101515612d7857fe5b906020019060200201518282815181101515612d9057fe5b90602001906020020181815250508080600101915050612d62565b819550505050505090565b6000806000809054906101000a900473ffffffffffffffffffffffffffffffffffffffff1673ffffffffffffffffffffffffffffffffffffffff163373ffffffffffffffffffffffffffffffffffffffff161415612e175760019150612f49565b600090505b600654811015612f44576005600082815260200190815260200160002060020160009054906101000a900473ffffffffffffffffffffffffffffffffffffffff16604051808273ffffffffffffffffffffffffffffffffffffffff1673ffffffffffffffffffffffffffffffffffffffff166c0100000000000000000000000002815260140191505060405180910390206000191633604051808273ffffffffffffffffffffffffffffffffffffffff1673ffffffffffffffffffffffffffffffffffffffff166c01000000000000000000000000028152601401915050604051809103902060001916148015612f29575060096005600083815260200190815260200160002060010154145b15612f375760019150612f49565b8080600101915050612e1c565b600091505b5090565b33604051808273ffffffffffffffffffffffffffffffffffffffff1673ffffffffffffffffffffffffffffffffffffffff166c010000000000000000000000000281526014019150506040518091039020600019166001600084815260200190815260200160002060010160009054906101000a900473ffffffffffffffffffffffffffffffffffffffff16604051808273ffffffffffffffffffffffffffffffffffffffff1673ffffffffffffffffffffffffffffffffffffffff166c0100000000000000000000000002815260140191505060405180910390206000191614801561306157507fffffffffffffffffffffffffffffffffffffffffffffffffffffffffffffffff61305f83612ae8565b145b80613070575061306f613919565b5b151561307b57600080fd5b60a0604051908101604052806008548152602001838152602001600081526020013373ffffffffffffffffffffffffffffffffffffffff1681526020018281525060076000600854815260200190815260200160002060008201518160000155602082015181600101556040820151816002015560608201518160030160006101000a81548173ffffffffffffffffffffffffffffffffffffffff021916908373ffffffffffffffffffffffffffffffffffffffff1602179055506080820151816004019080519060200190613152929190613fcc565b50905050817f1044b1b099b5303874f4bff2ed20f96da5dd5493d9d4aa96e5d0918aef0e75b060006040518082815260200191505060405180910390a26008600081548092919060010191905055505050565b6000806131b0613919565b156131be57600191506132f0565b600090505b6006548110156132eb576005600082815260200190815260200160002060020160009054906101000a900473ffffffffffffffffffffffffffffffffffffffff16604051808273ffffffffffffffffffffffffffffffffffffffff1673ffffffffffffffffffffffffffffffffffffffff166c0100000000000000000000000002815260140191505060405180910390206000191633604051808273ffffffffffffffffffffffffffffffffffffffff1673ffffffffffffffffffffffffffffffffffffffff166c010000000000000000000000000281526014019150506040518091039020600019161480156132d0575060016005600083815260200190815260200160002060010154145b156132de57600191506132f0565b80806001019150506131c3565b600091505b5090565b6060806000806060600060025460405190808252806020026020018201604052801561332f5781602001602082028038833980820191505090505b50945060009350600092505b60025483101561347d57866040518082805190602001908083835b60208310151561337b5780518252602082019150602081019050602083039250613356565b6001836020036101000a03801982511681845116808217855250505050505090500191505060405180910390206000191660016000858152602001908152602001600020600201604051808280546001816001161561010002031660029004801561341d5780601f106133fb57610100808354040283529182019161341d565b820191906000526020600020905b815481529060010190602001808311613409575b50509150506040518091039020600019161415613470576001600084815260200190815260200160002060000154858581518110151561345957fe5b906020019060200201818152505083806001019450505b828060010193505061333b565b836040519080825280602002602001820160405280156134ac5781602001602082028038833980820191505090505b509150600090505b838110156134fd5784818151811015156134ca57fe5b9060200190602002015182828151811015156134e257fe5b906020019060200201818152505080806001019150506134b4565b8195505050505050919050565b33604051808273ffffffffffffffffffffffffffffffffffffffff1673ffffffffffffffffffffffffffffffffffffffff166c010000000000000000000000000281526014019150506040518091039020600019166001600087815260200190815260200160002060010160009054906101000a900473ffffffffffffffffffffffffffffffffffffffff16604051808273ffffffffffffffffffffffffffffffffffffffff1673ffffffffffffffffffffffffffffffffffffffff166c0100000000000000000000000002815260140191505060405180910390206000191614801561361e57507fffffffffffffffffffffffffffffffffffffffffffffffffffffffffffffffff61361c86612ae8565b145b806136415750600061362f86612ae8565b148015613640575061363f613919565b5b5b80613650575061364f613a68565b5b151561365b57600080fd5b60c0604051908101604052808681526020016001600088815260200190815260200160002060010160009054906101000a900473ffffffffffffffffffffffffffffffffffffffff1673ffffffffffffffffffffffffffffffffffffffff16815260200185815260200184815260200183815260200182815250600160008781526020019081526020016000206000820151816000015560208201518160010160006101000a81548173ffffffffffffffffffffffffffffffffffffffff021916908373ffffffffffffffffffffffffffffffffffffffff1602179055506040820151816002019080519060200190613755929190613fcc565b506060820151816003019080519060200190613772929190613fcc565b50608082015181600401908051906020019061378f929190613fcc565b5060a08201518160050190805190602001906137ac929190613fcc565b50905050847f1cbf2cd235c38314babf05be51886d932f51271a15781bf861c1d56971e75f7b60405160405180910390a25050505050565b6000809054906101000a900473ffffffffffffffffffffffffffffffffffffffff1673ffffffffffffffffffffffffffffffffffffffff163373ffffffffffffffffffffffffffffffffffffffff1614151561383f57600080fd5b6060604051908101604052806006548152602001600981526020018273ffffffffffffffffffffffffffffffffffffffff16815250600560006006548152602001908152602001600020600082015181600001556020820151816001015560408201518160020160006101000a81548173ffffffffffffffffffffffffffffffffffffffff021916908373ffffffffffffffffffffffffffffffffffffffff16021790555090505060066000815480929190600101919050555050565b60006139066131a5565b151561391157600080fd5b600254905090565b600080613924612db6565b156139325760019150613a64565b600090505b600654811015613a5f576005600082815260200190815260200160002060020160009054906101000a900473ffffffffffffffffffffffffffffffffffffffff16604051808273ffffffffffffffffffffffffffffffffffffffff1673ffffffffffffffffffffffffffffffffffffffff166c0100000000000000000000000002815260140191505060405180910390206000191633604051808273ffffffffffffffffffffffffffffffffffffffff1673ffffffffffffffffffffffffffffffffffffffff166c01000000000000000000000000028152601401915050604051809103902060001916148015613a44575060026005600083815260200190815260200160002060010154145b15613a525760019150613a64565b8080600101915050613937565b600091505b5090565b60008060009054906101000a900473ffffffffffffffffffffffffffffffffffffffff1673ffffffffffffffffffffffffffffffffffffffff163373ffffffffffffffffffffffffffffffffffffffff161415613ac85760019050613acd565b600090505b90565b60008060608060608060008033604051808273ffffffffffffffffffffffffffffffffffffffff1673ffffffffffffffffffffffffffffffffffffffff166c01000000000000000000000000028152601401915050604051809103902060001916600160008b815260200190815260200160002060010160009054906101000a900473ffffffffffffffffffffffffffffffffffffffff16604051808273ffffffffffffffffffffffffffffffffffffffff1673ffffffffffffffffffffffffffffffffffffffff166c010000000000000000000000000281526014019150506040518091039020600019161480613bcc5750613bcb6131a5565b5b1515613bd757600080fd5b613bf6600160008b815260200190815260200160002060000154612ae8565b9050600160008a815260200190815260200160002060000154600160008b815260200190815260200160002060010160009054906101000a900473ffffffffffffffffffffffffffffffffffffffff16600160008c8152602001908152602001600020600201600160008d8152602001908152602001600020600301600160008e8152602001908152602001600020600401600160008f815260200190815260200160002060050186848054600181600116156101000203166002900480601f016020809104026020016040519081016040528092919081815260200182805460018160011615610100020316600290048015613d345780601f10613d0957610100808354040283529160200191613d34565b820191906000526020600020905b815481529060010190602001808311613d1757829003601f168201915b50505050509450838054600181600116156101000203166002900480601f016020809104026020016040519081016040528092919081815260200182805460018160011615610100020316600290048015613dd05780601f10613da557610100808354040283529160200191613dd0565b820191906000526020600020905b815481529060010190602001808311613db357829003601f168201915b50505050509350828054600181600116156101000203166002900480601f016020809104026020016040519081016040528092919081815260200182805460018160011615610100020316600290048015613e6c5780601f10613e4157610100808354040283529160200191613e6c565b820191906000526020600020905b815481529060010190602001808311613e4f57829003601f168201915b50505050509250818054600181600116156101000203166002900480601f016020809104026020016040519081016040528092919081815260200182805460018160011615610100020316600290048015613f085780601f10613edd57610100808354040283529160200191613f08565b820191906000526020600020905b815481529060010190602001808311613eeb57829003601f168201915b50505050509150975097509750975097509750975050919395979092949650565b6060806000613f366131a5565b1515613f4157600080fd5b600254604051908082528060200260200182016040528015613f725781602001602082028038833980820191505090505b509150600090505b600254811015613fc45760016000828152602001908152602001600020600001548282815181101515613fa957fe5b90602001906020020181815250508080600101915050613f7a565b819250505090565b828054600181600116156101000203166002900490600052602060002090601f016020900481019282601f1061400d57805160ff191683800117855561403b565b8280016001018555821561403b579182015b8281111561403a57825182559160200191906001019061401f565b5b509050614048919061404c565b5090565b61406e91905b8082111561406a576000816000905550600101614052565b5090565b905600a165627a7a72305820e5acdc0801b5a43daf88d11b0f3bca4b00d4e035ab938800abda3dfc7bc810dd0029",
  "source": "pragma solidity ^0.4.24;\r\n\r\n// -----------------------------------------------------------------------------\r\n// ID Blockchain PoC - Principal contract\r\n// -----------------------------------------------------------------------------\r\n// File name:   PersonList.sol\r\n// File type:   Solidity Contract\r\n// Version:     0.1.0\r\n// Author:      Marcel Buob\r\n// Creation:    09-FEB-2018\r\n//\r\n// Updates:     20-FEB-2018 | v0.1.0 | Basic fonctionality release\r\n//\r\n// Description: This is the principal contract for the 'ID Blockchain PoC'\r\n//              application.\r\n//\r\n// -----------------------------------------------------------------------------\r\n\r\n\r\n// Import of other needed contracts\r\nimport \"./Ownable.sol\";\r\nimport \"./Structures.sol\";\r\nimport \"./Events.sol\";\r\nimport \"./Validations.sol\";\r\nimport \"./Autorizations.sol\";\r\n\r\n\r\ncontract PersonList is Ownable, Structures, Events, Validations, Autorizations {\r\n\r\n\r\n  // ---------------------------------------------------------------------------\r\n  // Person structure Functions\r\n  // ---------------------------------------------------------------------------\r\n  // Info:  Everyone can add a person and than push the item to validation.\r\n  //        For a valid person Item, it shuld have all validation item checked.\r\n  //        FingerPrint infos can only be done by autorized user and phase.\r\n  //        Before phose 0, only the creator can modify the Person Item.\r\n  //        The Ids list can only be show if admin or Read right.\r\n  //        The creator can show hes own entry (or a readRight).\r\n  //        Simple user (not admin) can not have access to other's entry.\r\n\r\n\r\n  // fetch the number of persons in the contract list --------------------------\r\n  // Only if sys read right (Admin have readRight)\r\n  function getNumberOfPersons() public view returns (uint) {\r\n    require(IsReadPerson());\r\n    return PersonCounter;\r\n  }\r\n\r\n\r\n  // fetch and return all person IDs in a (0 based) array ----------------------\r\n  // Only if sys read right (Admin have readRight)\r\n  function getPersonIds() public view returns (uint[]) {\r\n\r\n    require(IsReadPerson());\r\n\r\n    // prepare output array in memory\r\n    uint[] memory personIds = new uint[](PersonCounter);\r\n\r\n    // iterate over persons and return the personIds array\r\n    for(uint i = 0; i < PersonCounter;  i++) {\r\n        personIds[i] = persons[i].id;\r\n    }\r\n\r\n    return personIds;\r\n  }\r\n\r\n\r\n  // return ids of the current address Person Item created ---------------------\r\n  // Only for the current creator\r\n  function getMyPersonIds() public view returns (uint[]) {\r\n\r\n    // prepare output array in memory\r\n    uint[] memory personIds = new uint[](PersonCounter);\r\n\r\n    // iterate over persons and return the personIds array\r\n    uint incr = 0;\r\n    for(uint i = 0; i < PersonCounter;  i++) {\r\n      if(persons[i].creator == msg.sender){\r\n        personIds[incr] = persons[i].id;\r\n        incr++;\r\n      }\r\n    }\r\n\r\n    uint[] memory MyPersonIds = new uint[](incr);\r\n    for(uint j = 0; j < incr;  j++) {\r\n      MyPersonIds[j] = personIds[j];\r\n    }\r\n\r\n    return MyPersonIds;\r\n  }\r\n\r\n\r\n  // return ids of the current address Person Item created ---------------------\r\n  // Only for the current creator\r\n  function SearchPersonIdsByName(string _name) public view returns (uint[]) {\r\n\r\n    // prepare output array in memory\r\n    uint[] memory personIds = new uint[](PersonCounter);\r\n\r\n    // iterate over persons and return the personIds array\r\n    uint incr = 0;\r\n    for(uint i = 0; i < PersonCounter;  i++) {\r\n\r\n\r\n\r\n      if(keccak256(persons[i].Name) == keccak256(_name)){\r\n        personIds[incr] = persons[i].id;\r\n        incr++;\r\n      }\r\n    }\r\n\r\n    uint[] memory MyPersonIds = new uint[](incr);\r\n    for(uint j = 0; j < incr;  j++) {\r\n      MyPersonIds[j] = personIds[j];\r\n    }\r\n\r\n    return MyPersonIds;\r\n  }\r\n\r\n\r\n  // Add a new person in the list ----------------------------------------------\r\n  // Everyone can do\r\n  function addPerson(string _name, string _givenName,\r\n                      string _gender, string _birthDate) public {\r\n\r\n    // store the person\r\n    persons[PersonCounter] = Person(PersonCounter,  msg.sender,\r\n                                    _name, _givenName, _gender, _birthDate);\r\n\r\n    // Add log\r\n    LogAddPerson(PersonCounter);\r\n    PersonCounter++;\r\n  }\r\n\r\n\r\n  // Modify the Person Item informations ---------------------------------------\r\n  // Only the creator can modify it (or WriteRight if validation 0 / or owner)\r\n  function modifyPerson(uint _ref_Person, string _name, string _givenName,\r\n    string _gender, string _birthDate) public {\r\n\r\n    require((keccak256(persons[_ref_Person].creator) == keccak256(msg.sender) &&\r\n              getValidation(_ref_Person) == -1) ||\r\n              (getValidation(_ref_Person) == 0 && IsWritePerson()) || IsOwner());\r\n\r\n    // store the new info\r\n    persons[_ref_Person] = Person(_ref_Person,\r\n      persons[_ref_Person].creator, _name, _givenName, _gender, _birthDate);\r\n\r\n    // Add log\r\n    LogModifyPerson(_ref_Person);\r\n  }\r\n\r\n\r\n  // Get Person info by id -----------------------------------------------------\r\n  // Only the creator or sys read right\r\n  function GetPerson(uint _ref_Person) public view returns (uint, address,\r\n    string, string, string, string, int) {\r\n\r\n    require(keccak256(persons[_ref_Person].creator) == keccak256(msg.sender) || IsReadPerson());\r\n\r\n    int validationInt =getValidation(persons[_ref_Person].id);\r\n\r\n    return (persons[_ref_Person].id, persons[_ref_Person].creator,\r\n       persons[_ref_Person].Name, persons[_ref_Person].givenName,\r\n       persons[_ref_Person].gender, persons[_ref_Person].birthDate,validationInt);\r\n  }\r\n\r\n\r\n\r\n\r\n\r\n  // ---------------------------------------------------------------------------\r\n  // Photo structure Functions\r\n  // ---------------------------------------------------------------------------\r\n  // Info:\r\n\r\n\r\n  // fetch the number of photo in the contract list --------------------------\r\n  // Only if sys read right (Admin have readRight)\r\n  function getNumberOfPhoto() public view returns (uint) {\r\n    require(IsReadPerson());\r\n    return PhotoCounter;\r\n  }\r\n\r\n\r\n  // fetch and return all photo IDs in a (0 based) array ----------------------\r\n  // Only if sys read right (Admin have readRight)\r\n  function getPhotoIds() public view returns (uint[]) {\r\n\r\n    require(IsReadPerson());\r\n\r\n    // prepare output array in memory\r\n    uint[] memory photoIds = new uint[](PhotoCounter);\r\n\r\n    // iterate over persons and return the personIds array\r\n    for(uint i = 0; i < PhotoCounter;  i++) {\r\n        photoIds[i] = photos[i].id;\r\n    }\r\n\r\n    return photoIds;\r\n  }\r\n\r\n\r\n  // return ids of the current address Photo Item created ---------------------\r\n  // Only for the current creator\r\n  function getMyPhotoIds() public view returns (uint[]) {\r\n\r\n    // prepare output array in memory\r\n    uint[] memory photoIds = new uint[](PhotoCounter);\r\n\r\n    // iterate over persons and return the personIds array\r\n    uint incr = 0;\r\n    for(uint i = 0; i < PhotoCounter;  i++) {\r\n      if(photos[i].creator == msg.sender){\r\n        photoIds[incr] = photos[i].id;\r\n        incr++;\r\n      }\r\n    }\r\n\r\n    uint[] memory MyPhotoIds = new uint[](incr);\r\n    for(uint j = 0; j < incr;  j++) {\r\n      MyPhotoIds[j] = photoIds[j];\r\n    }\r\n\r\n    return MyPhotoIds;\r\n  }\r\n\r\n\r\n  // Add a new photo in the list ----------------------------------------------\r\n  // Everyone can do, but is not validated by owner\r\n  function addPhoto(uint _ref_Person, string _PhotoEncoding,\r\n                                      string _PhotoBlob) public {\r\n\r\n    // store the photo\r\n    photos[PhotoCounter] = Photo(PhotoCounter,\r\n      msg.sender, _ref_Person, _PhotoEncoding, _PhotoBlob, false);\r\n\r\n    // Add log\r\n    emit LogAddPhoto(_ref_Person);\r\n    PhotoCounter++;\r\n  }\r\n\r\n\r\n  // Modify the phot Item informations ---------------------------------------\r\n  // Only the creator can modify it (or WriteRight if validation 0 / or owner)\r\n  function modifyPhoto(uint _ref_photo, string _PhotoEncoding,\r\n                                        string _PhotoBlob) public {\r\n\r\n    var _ref_Person=photos[_ref_photo].ref_Person;\r\n    require((keccak256(photos[_ref_photo].creator) == keccak256(msg.sender) &&\r\n              getValidation(_ref_Person) == -1) || (getValidation(_ref_Person) == 0 && IsWritePerson())\r\n              || IsOwner());\r\n\r\n    // store the new info\r\n    photos[_ref_photo] = Photo(_ref_photo,\r\n      msg.sender, _ref_Person, _PhotoEncoding, _PhotoBlob, false);\r\n\r\n    // Add log\r\n    emit LogModifyPhoto(_ref_Person);\r\n  }\r\n\r\n\r\n  // Get Photo info by id -----------------------------------------------------\r\n  // Only the creator (or owner) can see the pic before validated.\r\n  function GetPhoto(uint _ref_Photo) public view\r\n            returns (uint, address, uint, string, string, bool) {\r\n\r\n    if(keccak256(photos[_ref_Photo].creator) == keccak256(msg.sender) ||\r\n       IsReadPerson() && photos[_ref_Photo].ownerValidate || IsOwner()  ){\r\n\r\n       return (photos[_ref_Photo].id, photos[_ref_Photo].creator,\r\n          photos[_ref_Photo].ref_Person, photos[_ref_Photo].PhotoEncoding,\r\n          photos[_ref_Photo].PhotoBlob, photos[_ref_Photo].ownerValidate);\r\n\r\n     } else {\r\n       return (photos[_ref_Photo].id, photos[_ref_Photo].creator,\r\n          photos[_ref_Photo].ref_Person, photos[_ref_Photo].PhotoEncoding,\r\n          \"\", photos[_ref_Photo].ownerValidate);\r\n\r\n     }\r\n  }\r\n\r\n  // Get Photo info by person id -----------------------------------------------------\r\n  // Only the creator (or owner) can see the pic before validated.\r\n  function GetPhotoByPerson(uint _ref_Person) public view\r\n            returns (uint, address, uint, string, string, bool) {\r\n\r\n\r\n\r\n    uint _ref_Photo = 9999999999999;\r\n    // iterate over persons and return the personIds array\r\n    for(uint i = 0; i < PhotoCounter;  i++) {\r\n        if(photos[photos[i].id].ref_Person==_ref_Person){\r\n          _ref_Photo=photos[i].id;\r\n        }\r\n    }\r\n\r\n    if(_ref_Photo==9999999999999){\r\n      return (9999999999999, photos[_ref_Photo].creator,\r\n         9999999999999, photos[_ref_Photo].PhotoEncoding,\r\n         photos[_ref_Photo].PhotoBlob, photos[_ref_Photo].ownerValidate);\r\n    }\r\n\r\n\r\n    if(keccak256(photos[_ref_Photo].creator) == keccak256(msg.sender) ||\r\n       photos[_ref_Photo].ownerValidate || IsOwner()  ){\r\n\r\n       return (photos[_ref_Photo].id, photos[_ref_Photo].creator,\r\n          photos[_ref_Photo].ref_Person, photos[_ref_Photo].PhotoEncoding,\r\n          photos[_ref_Photo].PhotoBlob, photos[_ref_Photo].ownerValidate);\r\n\r\n     } else {\r\n       return (photos[_ref_Photo].id, photos[_ref_Photo].creator,\r\n          photos[_ref_Photo].ref_Person, photos[_ref_Photo].PhotoEncoding,\r\n          \"\", photos[_ref_Photo].ownerValidate);\r\n\r\n     }\r\n  }\r\n\r\n\r\n\r\n\r\n\r\n\r\n\r\n\r\n\r\n\r\n\r\n  // ---------------------------------------------------------------------------\r\n  // Validation structure Functions\r\n  // ---------------------------------------------------------------------------\r\n  // Info:\r\n  //\r\n  //\r\n\r\n\r\n  // Push to validation the person item in phase 0 -----------------------------\r\n  // Only the creator can push it (or sys write right)\r\n  function PuchPersonToValidation(uint _ref_Person, string _ValDate) public {\r\n\r\n    require((keccak256(persons[_ref_Person].creator) == keccak256(msg.sender) &&\r\n              getValidation(_ref_Person) == -1) || IsWritePerson());\r\n\r\n    // store the validation phase '0'\r\n    validations[ValidationCounter] = Validation(ValidationCounter,\r\n        _ref_Person, 0, msg.sender, _ValDate);\r\n\r\n    // Add log\r\n    emit LogAddValidation(_ref_Person, 0);\r\n    ValidationCounter++;\r\n  }\r\n\r\n  // Validate the person item in phase 1 ---------------------------------------\r\n  // Only admin can validate\r\n  function FinalPersonValidation(uint _ref_Person, string _ValDate) public {\r\n\r\n    require(IsAdmin() && getValidation(_ref_Person) == 0 );\r\n\r\n    // store the validation phase '0'\r\n    validations[ValidationCounter] = Validation(ValidationCounter,\r\n        _ref_Person, 1, msg.sender, _ValDate);\r\n\r\n    // Add log\r\n    emit LogAddValidation(_ref_Person, 1);\r\n    ValidationCounter++;\r\n  }\r\n\r\n  // Validate the photo\r\n  // The photo can only be viewed by the creator until it's validated by owner.\r\n  function ValidatePhoto(uint _ref_photo) public {\r\n    //require(IsOwner());\r\n\r\n    var _ref_Person=photos[_ref_photo].ref_Person;\r\n\r\n    // store the new info\r\n    photos[_ref_photo] = Photo(_ref_photo,\r\n      photos[_ref_photo].creator, photos[_ref_photo].ref_Person,\r\n       photos[_ref_photo].PhotoEncoding, photos[_ref_photo].PhotoBlob, true);\r\n\r\n    // Add log\r\n    emit LogValidePhoto(_ref_Person);\r\n  }\r\n\r\n\r\n\r\n\r\n\r\n\r\n\r\n\r\n\r\n\r\n\r\n  // Get Contract owner info ---------------------------------------------------\r\n  function GetContractOwner() public view returns (address) {\r\n    return owner;\r\n  }\r\n\r\n\r\n\r\n  // deactivate the contract\r\n  function kill() public onlyOwner {\r\n    selfdestruct(owner);\r\n  }\r\n\r\n}\r\n",
  "sourcePath": "D:\\ChainSkills\\Training\\IDchain\\contracts\\PersonList.sol",
  "compiler": {
    "name": "solc",
    "version": "0.4.24+commit.e67f0147.Emscripten.clang"
  },
  "schemaVersion": "2.0.1",
  "updatedAt": "2018-07-19T16:02:54.310Z"
}