{
  "contractName": "Validations",
  "abi": [
    {
      "constant": true,
      "inputs": [
        {
          "name": "_ref_Person",
          "type": "uint256"
        }
      ],
      "name": "getValidation",
      "outputs": [
        {
          "name": "",
          "type": "int256"
        }
      ],
      "payable": false,
      "stateMutability": "view",
      "type": "function"
    }
  ],
  "bytecode": "0x60806040526000600255600060045560006006556000600855336000806101000a81548173ffffffffffffffffffffffffffffffffffffffff021916908373ffffffffffffffffffffffffffffffffffffffff160217905550610139806100676000396000f300608060405260043610610041576000357c0100000000000000000000000000000000000000000000000000000000900463ffffffff1680638392ae5c14610046575b600080fd5b34801561005257600080fd5b5061007160048036038101908080359060200190929190505050610087565b6040518082815260200191505060405180910390f35b60008060007fffffffffffffffffffffffffffffffffffffffffffffffffffffffffffffffff9150600090505b6008548110156101035783600760008381526020019081526020016000206001015414156100f657600760008281526020019081526020016000206002015491505b80806001019150506100b4565b81925050509190505600a165627a7a72305820420ec6b03616d11c244ce1bd78144d3f18d4fe4be46eeb2d170d9e602a499d2e0029",
  "source": "pragma solidity ^0.4.24;\r\n\r\n\r\nimport \"./Ownable.sol\";\r\nimport \"./Structures.sol\";\r\n\r\n\r\ncontract Validations is Ownable, Structures  {\r\n\r\n\r\n\r\n\r\n\r\n\r\n\r\n\r\n\r\n\r\n\r\n  // Check the actual Validation phase -----------------------------------------\r\n  function getValidation(uint _ref_Person) public view returns (int){\r\n\r\n    int RetVal = -1;\r\n\r\n    // iterate over Validation storage\r\n    for(uint i = 0; i < ValidationCounter;  i++) {\r\n      if(validations[i].ref_Person == _ref_Person ){\r\n        RetVal = validations[i].ref_ValidationFlow;\r\n      }\r\n    }\r\n    return RetVal;\r\n\r\n  }\r\n\r\n\r\n\r\n}\r\n",
  "sourcePath": "D:\\ChainSkills\\Training\\IDchain\\contracts\\Validations.sol",
  "compiler": {
    "name": "solc",
    "version": "0.4.24+commit.e67f0147.Emscripten.clang"
  },
  "schemaVersion": "2.0.1",
  "updatedAt": "2018-07-19T19:14:32.061Z"
}