{
  "contractName": "Validations",
  "abi": [
    {
      "constant": true,
      "inputs": [
        {
          "name": "_ref_Person",
          "type": "uint256"
        }
      ],
      "name": "getValidation",
      "outputs": [
        {
          "name": "",
          "type": "int256"
        }
      ],
      "payable": false,
      "stateMutability": "view",
      "type": "function"
    }
  ],
  "bytecode": "0x60606040526000600255600060045560006006556000600855336000806101000a81548173ffffffffffffffffffffffffffffffffffffffff021916908373ffffffffffffffffffffffffffffffffffffffff160217905550610127806100676000396000f300606060405260043610603f576000357c0100000000000000000000000000000000000000000000000000000000900463ffffffff1680638392ae5c146044575b600080fd5b3415604e57600080fd5b606260048080359060200190919050506078565b6040518082815260200191505060405180910390f35b60008060007fffffffffffffffffffffffffffffffffffffffffffffffffffffffffffffffff9150600090505b60085481101560f157836007600083815260200190815260200160002060010154141560e557600760008281526020019081526020016000206002015491505b808060010191505060a5565b81925050509190505600a165627a7a7230582087e9d5c4d52029fffec020782a34e0f97f30a35380f984fa61756cf2ca0abbca0029",
  "source": "pragma solidity ^0.4.18;\r\n\r\n\r\nimport \"./Ownable.sol\";\r\nimport \"./Structures.sol\";\r\n\r\n\r\ncontract Validations is Ownable, Structures  {\r\n\r\n\r\n\r\n\r\n\r\n\r\n\r\n\r\n\r\n\r\n\r\n  // Check the actual Validation phase -----------------------------------------\r\n  function getValidation(uint _ref_Person) public view returns (int){\r\n\r\n    int RetVal = -1;\r\n\r\n    // iterate over Validation storage\r\n    for(uint i = 0; i < ValidationCounter;  i++) {\r\n      if(validations[i].ref_Person == _ref_Person ){\r\n        RetVal = validations[i].ref_ValidationFlow;\r\n      }\r\n    }\r\n    return RetVal;\r\n\r\n  }\r\n\r\n\r\n\r\n}\r\n",
  "sourcePath": "D:\\ChainSkills\\Training\\IDchain\\contracts\\Validations.sol",
  "compiler": {
    "name": "solc",
    "version": "0.4.18+commit.9cf6e910.Emscripten.clang"
  },
  "schemaVersion": "1.0.1",
  "updatedAt": "2018-07-19T14:41:31.119Z"
}